:020000040000FA
:060000000A128A110C280F
:10000800FE00030EF2000A08F3000A128A113828CB
:100018000A128A110F28F001F10183010A128A11CC
:100028001528831603138801831203138801831686
:1000380003130108F83902388100811281118B17E6
:100048008B160B11E8307006033003197106031D77
:100058002E282F282628831203138809F001F1017E
:1000680026280A128A110C280B1D3B283C284728F1
:1000780005308312031381000B110130F0070318B8
:10008800F10A0030F10773088A00720E8300FE0E31
:040098007E0E0900CF
:04400E00F720FF3F59
:00000001FF
