:020000040000FA
:100000000A128A11FC2F00308A000408840A820731
:1000100000344C344534443420346F346634663410
:10002000203400344C344534443420346F346E343E
:040030002034003444
:100D3400F000831203130C1EA02EA12E9B2E70080C
:100D44009900080083120313981CA92EAA2EAC2E16
:100D5400181218168C1EAF2EB02EAC2E1A080800CE
:100D6400F200C42E720884000A128A1103200A12A7
:100D74008A110A128A119A260A128A110130F10084
:100D84007108F207720884000A128A1103200A12F9
:100D94008A11003A031DCF2ED02EB42E08008316DC
:100DA40003130713871718121811831603178711D3
:100DB400831203132608F9002708FA002808FB0009
:100DC4002908FC0006300310F90DFA0DFB0DFC0D8B
:100DD400FF3E031DE52E7C08F3007B08F2007A0831
:100DE400F1007908F0000030F7007A30F600123094
:100DF400F5000030F4000A128A115F270A128A11E2
:100E04007008FF3E83160313990083120313981787
:100E140083160313981683120313181618138316D4
:100E2400031318130800003083120313A9000030C1
:100E3400A8002530A7008030A6000A128A11D12606
:100E44000A128A118316031308120A128A11A4269D
:100E54000A128A11313A031D302F312F3A2F83128F
:100E6400031308160A300A128A11B2260A128A11CA
:100E74000A128A11A4260A128A11303A031D432F3A
:100E8400442F4D2F83120313081201300A128A11C2
:100E9400B2260A128A110B3083120313AC002630D7
:100EA400AB005D30AA00AA0B552FAB0B552FAC0B32
:100EB400552F272F0A128A11002883120313A10128
:100EC400F31F652F662F732FF009F109F209F30957
:100ED400F00A0319F10A0319F20A0319F30AA1012A
:100EE400A10AF71F762F772F862FF409F509F60943
:100EF400F709F40A0319F50A0319F60A0319F70A9C
:100F04000130F8007808A1060030A5000030A400E4
:100F14000030A3000030A20073087204710470044E
:100F24000319952F962FE32FA001A00AA62F0130B5
:100F3400F8000310F00DF10DF20DF30DF80B9B2FDB
:100F44000130F8007808A007F31FA92FAA2F992FC2
:100F54000130F8000310A20DA30DA40DA50DF80B8C
:100F6400AC2F73087702031DC12F72087602031D8C
:100F7400C12F71087502031DC12F70087402031C70
:100F8400C42FC52FD42F7008F4027108031C710FED
:100F9400F5027208031C720FF6027308031C730F28
:100FA400F702221401300310F30CF20CF10CF00CD4
:100FB400FF3E031DD52F0130A002031DE22FE32FB6
:100FC400AA2F21080319E72FE82FF32FA209A30959
:100FD400A409A509A20A0319A30A0319A40A031957
:100FE400A50A2508F3002408F2002308F1002208CA
:0C0FF400F000080083010A128A11152F7A
:04400E00F720FF3F59
:00000001FF
