:020000040000FA
:100000000A128A11F02FFF1B0D2883137F18831704
:100010000008840A0319FF0A080000308A00040857
:10002000840A82070034013400340A340034643412
:100030000034E834033410342734543465346D34D8
:1000400070346534723461347434753472346534A8
:100050003A34203425346434203400344434653454
:10006000763469346F3474342E3476346E3400341C
:1008EE0064008001840A0406031900340406782C7F
:1008FE00F800831203135514081478080A128A118B
:10090E00CC250A128A110800F00070088312031316
:10091E00930083160313141C952C962C902C831283
:10092E00031313080800F400831203130810881031
:10093E007408880008152C30F0000130F1000A12FE
:10094E008A11AF240A128A118312031308110800A8
:10095E00F201F301F201F301BA2C0130F207031890
:10096E00F30A0030F30771087302031DC02C7008E0
:10097E007202031CC32CC42CB42C0800F300831683
:10098E00031307168712731DCD2CCE2CD22C871570
:10099E0072089400D62C87117008720494007308A4
:1009AE0071048312031394000800FB01FC01F62C62
:1009BE007B08790784007A0803187A0AFF000A1266
:1009CE008A1103200A128A110A128A117F240A122E
:1009DE008A110130FB070318FC0A0030FC077B0864
:1009EE00790784007A0803187A0A83120313FF002A
:1009FE000A128A1103200A128A11003A031D082DC9
:100A0E00092DDF2C08007808790403190F2D102DFD
:100A1E003F2DFD01FD0A1E2D01300310F80DF90DBD
:100A2E00FF3E031D142D0130FC007C08FD07F91F4D
:100A3E00212D222D132D79087B02031D282D7808D8
:100A4E007A02031C2B2D2C2D322D7808FA027908F0
:100A5E00031CFB03FB0201300310F90CF80CFF3EE4
:100A6E00031D332D0130FD02031D3E2D3F2D222D82
:100A7E007B08F9007A08F800080083120313871325
:100A8E000330F4009730F300F30B4B2DF40B4B2D8A
:100A9E00502D00300A128A118B240A128A11F3008B
:100AAE007308F90000300A128A118B240A128A1177
:100ABE00F3007308FA008312031387177A08F30002
:100ACE00F4017908F500F6017508F600F5017308D2
:100ADE007504F70074087604F8007808F4007708B7
:100AEE00F3000530FF00740DF40CF30CFF0B7A2DA0
:100AFE007308E73EF10074080318013EFF3EF20052
:100B0E000800F501F6017008710403198F2D902D60
:100B1E00C72DF701F70A9E2D01300310F00DF10DD0
:100B2E00FF3E031D942D0130F4007408F707F11FEA
:100B3E00A12DA22D932D01300310F50DF60DFF3EC4
:100B4E00031DA32D71087302031DAF2D70087202D1
:100B5E00031CB22DB32DBA2D7008F2027108031CBE
:100B6E00F303F302751401300310F10CF00CFF3E89
:100B7E00031DBB2D0130F702031DC62DC72DA22D5F
:100B8E007608F1007508F0000800F60083120313D2
:100B9E00551CD22DD32DD52D5510D62D08108810BD
:100BAE007608F4007408F700F030F4007408F705C6
:100BBE000F30F400740888057708F4007408880470
:100BCE0008152C30F0000130F1000A128A11AF2402
:100BDE000A128A118312031308117608F4000330E7
:100BEE000310F40DFF3E031DF72D0310740DF500D9
:100BFE007508F700F030F4007408F7050F30F400B4
:100C0E00740888057708F4007408880408152C30D9
:100C1E00F0000130F1000A128A11AF240A128A1173
:100C2E008312031308110800831603138801871318
:100C3E0007130A128A1171260A128A118030831242
:100C4E000313D2005208F000F101F20120300A1213
:100C5E008A11C5240A128A1180300A128A11CC25F3
:100C6E000A128A111C30F9008030FA000A128A1119
:100C7E00DC240A128A118312031307170A128A112F
:100C8E0044250A128A11720883120313D4007108C4
:100C9E00D3000B30D2005208C5005408C7005308C9
:100CAE00C60035300A128A1108270A128A11C0307E
:100CBE000A128A11CC250A128A113530F900003039
:100CCE00FA000A128A11DC240A128A11422E0A1222
:100CDE008A1100282C30F0000130F1000A128A111E
:100CEE00AF240A128A1130300A128A119A240A127B
:100CFE008A112C30F0000130F1000A128A11AF2453
:100D0E000A128A1130300A128A119A240A128A1192
:100D1E002C30F0000130F1000A128A11AF240A12B1
:100D2E008A1130300A128A119A240A128A112C3032
:100D3E00F0000130F1000A128A11AF240A128A1152
:100D4E0020300A128A119A240A128A112C30F000CD
:100D5E000130F1000A128A11AF240A128A110C30E6
:100D6E000A128A11CC250A128A1128300A128A1107
:100D7E00CC250A128A112C30F0000130F1000A1233
:100D8E008A11AF240A128A1104300A128A11CC2554
:100D9E000A128A112C30F0000130F1000A128A1169
:100DAE00AF240A128A1185300A128A11CC250A1232
:100DBE008A112C30F0000130F1000A128A11AF2492
:100DCE000A128A1106300A128A11CC250A128A11C9
:100DDE002C30F0000130F1000A128A11AF240A12F1
:100DEE008A1101300A128A11CC250A128A112C306E
:100DFE00F0000130F1000A128A11AF240A128A1192
:100E0E00080083120313D0004630C8004808CB00F8
:100E1E00D92F253051060319152F162F222F5108C1
:100E2E00C800500884004808831380000130C800B1
:100E3E004808D007D92FCC010130C507FF30450730
:100E4E0084000A128A110D200A128A11D100C800DC
:100E5E00C9014908003A0319352FD92F4808003A1D
:100E6E000319EB2F643A0319402F0D3A0319402F43
:100E7E00D92F4B08840083130008CE00840A000883
:100E8E00CF000230C8004808CB07CF1F4F2F502F7E
:100E9E00592F0330C8004808CC04CE09CF09CE0A1A
:100EAE000319CF0AD101D10A5108C8004807013EE3
:100EBE0084000A128A110D200A128A11C9000A1220
:100ECE008A110D200A128A11CA004A084F02031D08
:100EDE00722F49084E020318752F762F772F812F08
:100EEE000130C8004808D10705305106031D802F78
:100EFE00812F5B2F4C0803390319862F872F922FD2
:100F0E002D30C8005008840048088313800001303B
:100F1E00C8004808D0075108C8004808CD00D02F97
:100F2E000A30F8000030F9004D08C8004807013EAD
:100F3E0084000A128A110D200A128A11F0000A1278
:100F4E008A110D200A128A11F1004F08F3004E0883
:100F5E00F2000A128A1188250A128A117108FB0002
:100F6E007008FA000A128A110A250A128A117808E4
:100F7E00303E83120313C9004908D1005108C8003E
:100F8E00500884004808831380000130C8004808C8
:100F9E00D007FF30C8004808CD074D0A031DD82FD3
:100FAE00D92F972F0130C507FF30450784000A124D
:100FBE008A110D200A128A11C8004808D100510862
:100FCE00031DEA2FEB2F102F50088400831380018E
:100FDE00080083120313D50183132030840045309B
:100FEE000A128A1177240A128A1183010A128A11AF
:020FFE001B2EA8
:04400E00F720FF3F59
:00000001FF
