:020000040000FA
:100000000A128A11F02F00308A000408840A82073D
:100010000034013400340A34003464340034E834E9
:10002000033410342734443465346D342034783448
:1000300075346E3467343A342034253464340034F3
:100A0A0064008001840A0406031900340406062DD2
:100A1A00F800831203135514081478080A128A116D
:100A2A0019260A128A110800F40083120313081007
:100A3A0088107408880008152C30F0000130F10085
:100A4A000A128A112E250A128A1183120313081117
:100A5A000800F201F301F201F301392D0130F20726
:100A6A000318F30A0030F30771087302031D3F2DC0
:100A7A0070087202031C422D432D332D0800FC001E
:100A8A00FA01FB01592D7A087C07F90079088400DC
:100A9A0000080A128A110D250A128A110130FA0772
:100AAA000318FB0A0030FB077A087C07F90079086B
:100ABA00840083130008031D632D642D482D08004C
:100ACA0083160313071488010A128A1168260A1268
:100ADA008A11831203139014CF3090051011101449
:100AEA008E018F01831203130F08D4000E08D3005E
:100AFA000B30D2005208C5005408C7005308C6007C
:100B0A0035300A128A1108270A128A1180300A120D
:100B1A008A1119260A128A1135300A128A114425B5
:100B2A000A128A11772D0A128A1100287808790484
:100B3A000319A02DA12DD02DFD01FD0AAF2D0130E5
:100B4A000310F80DF90DFF3E031DA52D0130FC0021
:100B5A007C08FD07F91FB22DB32DA42D79087B025D
:100B6A00031DB92D78087A02031CBC2DBD2DC32D97
:100B7A007808FA027908031CFB03FB020130031010
:100B8A00F90CF80CFF3E031DC42D0130FD02031DB4
:100B9A00CF2DD02DB32D7B08F9007A08F800080074
:100BAA00F501F601700871040319DC2DDD2D142EF0
:100BBA00F701F70AEB2D01300310F00DF10DFF3E9E
:100BCA00031DE12D0130F4007408F707F11FEE2D23
:100BDA00EF2DE02D01300310F50DF60DFF3E031D3C
:100BEA00F02D71087302031DFC2D70087202031C9C
:100BFA00FF2D002E072E7008F2027108031CF30362
:100C0A00F302751401300310F10CF00CFF3E031DC2
:100C1A00082E0130F702031D132E142EEF2D76082D
:100C2A00F1007508F0000800F60083120313551C42
:100C3A001F2E202E222E5510232E081088107608DB
:100C4A00F4007408F700F030F4007408F7050F3068
:100C5A00F400740888057708F400740888040815F5
:100C6A002C30F0000130F1000A128A112E250A12E6
:100C7A008A118312031308117608F4000330031053
:100C8A00F40DFF3E031D442E0310740DF500750884
:100C9A00F700F030F4007408F7050F30F400740818
:100CAA0088057708F4007408880408152C30F000C9
:100CBA000130F1000A128A112E250A128A118312B2
:100CCA000313081108002C30F0000130F1000A1259
:100CDA008A112E250A128A1130300A128A11192510
:100CEA000A128A112C30F0000130F1000A128A111E
:100CFA002E250A128A1130300A128A1119250A126F
:100D0A008A112C30F0000130F1000A128A112E25C6
:100D1A000A128A1130300A128A1119250A128A1106
:100D2A002C30F0000130F1000A128A112E250A1225
:100D3A008A1120300A128A1119250A128A112C30B6
:100D4A00F0000130F1000A128A112E250A128A11C6
:100D5A000C300A128A1119260A128A112C30F00054
:100D6A000130F1000A128A112E250A128A1128303E
:100D7A000A128A1119260A128A112C30F00001303F
:100D8A00F1000A128A112E250A128A1104300A1257
:100D9A008A1119260A128A112C30F0000130F1004A
:100DAA000A128A112E250A128A1185300A128A110C
:100DBA0019260A128A112C30F0000130F1000A12A9
:100DCA008A112E250A128A1106300A128A11192648
:100DDA000A128A112C30F0000130F1000A128A112D
:100DEA002E250A128A1101300A128A1119260A12AC
:100DFA008A112C30F0000130F1000A128A112E25D6
:100E0A000A128A11080083120313D0004630C80060
:100E1A004808CB00D92F253051060319152F162F54
:100E2A00222F5108C8005008840048088313800004
:100E3A000130C8004808D007D92FCC010130C507B6
:100E4A00FF30450784000A128A1103200A128A1108
:100E5A00D100C800C9014908003A0319352FD92F12
:100E6A004808003A0319EB2F643A0319402F0D3A48
:100E7A000319402FD92F4B08840083130008CE0092
:100E8A00840A0008CF000230C8004808CB07CF1FE9
:100E9A004F2F502F592F0330C8004808CC04CE09D1
:100EAA00CF09CE0A0319CF0AD101D10A5108C800C5
:100EBA004807013E84000A128A1103200A128A1185
:100ECA00C9000A128A1103200A128A11CA004A08A2
:100EDA004F02031D722F49084E020318752F762FF1
:100EEA00772F812F0130C8004808D10705305106F5
:100EFA00031D802F812F5B2F4C0803390319862F7E
:100F0A00872F922F2D30C800500884004808831379
:100F1A0080000130C8004808D0075108C8004808B6
:100F2A00CD00D02F0A30F8000030F9004D08C80073
:100F3A004807013E84000A128A1103200A128A1104
:100F4A00F0000A128A1103200A128A11F1004F08CE
:100F5A00F3004E08F2000A128A11D5250A128A11E4
:100F6A007108FB007008FA000A128A119B250A12FE
:100F7A008A117808303E83120313C9004908D10048
:100F8A005108C800500884004808831380000130C3
:100F9A00C8004808D007FF30C8004808CD074D0AE6
:100FAA00031DD82FD92F972F0130C507FF304507CA
:100FBA0084000A128A1103200A128A11C8004808FA
:100FCA00D1005108031DEA2FEB2F102F500884007F
:100FDA0083138001080083120313D5018313203081
:100FEA00840045300A128A1105250A128A118301E2
:060FFA000A128A11652DA8
:04400E00F720FF3F59
:00000001FF
