:020000040000FA
:100000000A128A11FB2F00308A000408840A820732
:10001000003444346534763469346F3474342E34A7
:0600200076346E3400345A
:100C7000F8007C1483120313081478080A128A11EE
:100C80000A270A128A110800F400831203130810BD
:100C900088107408880008152C30F0000130F1002D
:100CA0000A128A1159260A128A1183120313081193
:100CB0000800F201F301F201F301642E0130F207A2
:100CC0000318F30A0030F30771087302031D6A2E3C
:100CD00070087202031C6D2E6E2E5E2E0800FA0044
:100CE000812E7A0884000A128A1103200A128A11BE
:100CF0000A128A1138260A128A110130F90079087D
:100D0000FA077A0884000A128A1103200A128A114B
:100D1000003A031D8C2E8D2E712E0800FB00B02E84
:100D20007808D33E0A128A110A270A128A11C32EA2
:100D30007808BF3E0A128A110A270A128A11C32EA6
:100D40007808933E0A128A110A270A128A11C32EC2
:100D500078087F3E0A128A110A270A128A11C32EC6
:100D60007B08F900FA017A08003A0319B82EA82E78
:100D70007908023A0319982E013A0319A02E073A6E
:100D80000319902EA82E08008316031388010A1257
:100D90008A115B270A128A11043083120313A00000
:100DA0002008F80002300A128A118E260A128A11CF
:100DB00001300A128A116F260A128A1118300A129B
:100DC0008A110A270A128A11063083120313A2001D
:100DD0001330A100AD30A000A00BEC2EA10BEC2E27
:100DE000A20BEC2E1E300A128A110A270A128A114F
:100DF000063083120313A2001330A100AD30A0000F
:100E0000A00B002FA10B002FA20B002FDE2E0A1229
:100E10008A110028F6007C1C0E2F0F2F112F7C103A
:100E2000142F8312031308108312031388107608FB
:100E3000F4007408F700F030F4007408F7050F3080
:100E4000F400740888057708F4007408880408150D
:100E50002C30F0000130F1000A128A1159260A12D2
:100E60008A118312031308117608F400033003106B
:100E7000F40DFF3E031D372F0310740DF5007508A8
:100E8000F700F030F4007408F7050F30F400740830
:100E900088057708F4007408880408152C30F000E1
:100EA0000130F1000A128A1159260A128A1183129E
:100EB0000313081108002C30F0000130F1000A1271
:100EC0008A1159260A128A1130300A128A114426D0
:100ED0000A128A112C30F0000130F1000A128A1136
:100EE00059260A128A1130300A128A1144260A122F
:100EF0008A112C30F0000130F1000A128A115926B3
:100F00000A128A1130300A128A1144260A128A11F2
:100F10002C30F0000130F1000A128A1159260A1211
:100F20008A1120300A128A1144260A128A112C30A2
:100F3000F0000130F1000A128A1159260A128A11B2
:100F40000C300A128A110A270A128A112C30F0007A
:100F50000130F1000A128A1159260A128A1128302A
:100F60000A128A110A270A128A112C30F000013065
:100F7000F1000A128A1159260A128A1104300A1243
:100F80008A110A270A128A112C30F0000130F10070
:100F90000A128A1159260A128A1185300A128A11F8
:100FA0000A270A128A112C30F0000130F1000A12CF
:100FB0008A1159260A128A1106300A128A110A2742
:100FC0000A128A112C30F0000130F1000A128A1145
:100FD00059260A128A1101300A128A110A270A12A6
:100FE0008A112C30F0000130F1000A128A115926C2
:100FF0000A128A110800FC0183010A128A11C42E08
:04400E00D720FF3F79
:00000001FF
