:020000040000FA
:100000000A128A11F02F00308A000408840A82073D
:1000100000345734443454342034723465347334E7
:0600200065347434003465
:100C720064008001840A04060319003404063A2E33
:100C8200F800831203133814081478080A128A1120
:100C92009D260A128A110800F40083120313081019
:100CA20088107408880008152C30F0000130F1001B
:100CB2000A128A1162260A128A1183120313081178
:100CC2000800F201F301F201F3016D2E0130F20787
:100CD2000318F30A0030F30771087302031D732E21
:100CE20070087202031C762E772E672E0800FB0016
:100CF200F901FA018F2E79087B0784000A128A1102
:100D020003200A128A110A128A1141260A128A1132
:100D12000130F9070318FA0A0030FA0779087B074D
:100D220084000A128A1103200A128A11003A031D52
:100D32009B2E9C2E7C2E0800F60083120313381C77
:100D4200A32EA42EA62E3810A72E081088107608DF
:100D5200F4007408F700F030F4007408F7050F305F
:100D6200F400740888057708F400740888040815EC
:100D72002C30F0000130F1000A128A1162260A12A8
:100D82008A118312031308117608F400033003104A
:100D9200F40DFF3E031DC82E0310740DF5007508F7
:100DA200F700F030F4007408F7050F30F40074080F
:100DB20088057708F4007408880408152C30F000C0
:100DC2000130F1000A128A1162260A128A11831274
:100DD200031308110800FC01FD01831603138801A7
:100DE20007130A128A1159270A128A11831203174A
:100DF200051483120313031EFF2E002F0C2F8030C5
:100E02000A128A119D260A128A1101300A128A11C7
:100E120078260A128A110B3083120313B700263088
:100E2200B6005D30B500B50B142FB60B142FB70BFF
:100E3200142F8316031381150730810483120317BD
:100E42000508E139083885008312031307130130BE
:100E52000A128A119D260A128A1140308312031344
:100E62008706033083120313B7000830B6007630CA
:100E7200B500B50B3A2FB60B3A2FB70B3A2F00003D
:100E820064000130FC070318FD0A0030FD077D08ED
:100E9200803AFF0080307F02031D512F0B307C020D
:100EA200031C542F552F2E2F552F0A128A1100285A
:100EB2002C30F0000130F1000A128A1162260A1267
:100EC2008A1130300A128A114D260A128A112C30E8
:100ED200F0000130F1000A128A1162260A128A1108
:100EE20030300A128A114D260A128A112C30F00073
:100EF2000130F1000A128A1162260A128A11303078
:100F02000A128A114D260A128A112C30F000013081
:100F1200F1000A128A1162260A128A1120300A127C
:100F22008A114D260A128A112C30F0000130F1008C
:100F32000A128A1162260A128A110C300A128A11C6
:100F42009D260A128A1128300A128A119D260A1237
:100F52008A112C30F0000130F1000A128A11622647
:100F62000A128A1104300A128A119D260A128A1163
:100F72002C30F0000130F1000A128A1162260A12A6
:100F82008A1185300A128A119D260A128A112C3082
:100F9200F0000130F1000A128A1162260A128A1147
:100FA20006300A128A119D260A128A112C30F0008C
:100FB2000130F1000A128A1162260A128A110130E6
:100FC2000A128A119D260A128A112C30F000013071
:100FD200F1000A128A1162260A128A11080083128B
:100FE2000313B80183132030840035300A128A11AA
:0E0FF20039260A128A1183010A128A11EC2E86
:04400E00F520FF3F5B
:00000001FF
