:020000040000FA
:060000000A128A11E72F2D
:10000C00F80083160313681483120313081478087A
:10001C000A168A15F5240A128A1108007008F800CD
:10002C007108F9007208FA000310790D7A0DFB00C3
:10003C007B0883120313A5002508031D26282728F7
:10004C0030280030F3000030F2000030F1000030B6
:10005C00F000D0287408F8007508F9007608FA004A
:10006C000310790D7A0DFB007B08A4002408031DF6
:10007C004028412842282728F117FF30F005FF308F
:10008C00F1050030F205F517FF30F405FF30F505EA
:10009C000030F6050030A3000030A2000030A100B3
:1000AC000030A0007F30A50298302407F8007808B3
:1000BC00A5021830F8007808A4000130F8000310ED
:1000CC00A00DA10DA20DA30DF80B652876087202E8
:1000DC00031D762875087102031D762874087002BA
:1000EC00031C79287A2885287408F0027508031CEB
:1000FC00750FF1027608031C760AF2022014013007
:10010C000310F00DF10DF20DFF3E031D862801309A
:10011C00A402031D922893286328A51F96289728CC
:10012C00B1282508803A973E03189D289E289F28C1
:10013C00272801300310A30CA20CA10CA00CFF3E2D
:10014C00031DA0280130F8007808A507031DAF286F
:10015C00B0289F28C82818302502031CB628B728B9
:10016C00C32827280130F8000310A00DA10DA20D03
:10017C00A30DF80BBA280130A5022508031DC728CA
:10018C00C828B8282308F3002208F2002108F1003F
:10019C002008F00008000310720D730DF8007808A9
:1001AC0083120313A5002508031DDD28DE28E7288C
:1001BC000030F3000030F2000030F1000030F000AD
:1001CC008E290310760D770DF8007808A40024080A
:1001DC00031DF128F228F328DE28F217FF30F00572
:1001EC00FF30F105FF30F2050030F305F617FF3054
:1001FC00F405FF30F505FF30F6050030F70500304B
:10020C00A3000030A2000030A1000030A0007F301D
:10021C00A502A0302407F8007808A5022030F800C9
:10022C007808A4000130F8000310A00DA10DA20D58
:10023C00A30DF80B1A2977087302031D2F297608D2
:10024C007202031D2F2975087102031D2F297408D2
:10025C007002031C3229332942297408F0027508F4
:10026C00031C750FF1027608031C760FF202770857
:10027C00031C770FF30220140130F8000310F00D6B
:10028C00F10DF20DF30DF80B44290130A402031DFE
:10029C00502951291829A51F542955296F2925089A
:1002AC00803A9F3E03185B295C295D29DE280130CA
:1002BC000310A30CA20CA10CA00CFF3E031D5E2985
:1002CC000130F8007808A507031D6D296E295D29FA
:1002DC00862920302502031C742975298129DE28E2
:1002EC000130F8000310A00DA10DA20DA30DF80B09
:1002FC0078290130A5022508031D85298629762930
:10030C002308F3002208F2002108F1002008F00075
:10031C00080083160313BB00A130A5002508AE000E
:10032C00D02F2530420603199C299D29A929420862
:10033C00A5003B0884002508831380000130A5002C
:10034C002508BB07D02FAF01B001200884000A1686
:10035C008A1100200A128A112E3A031DB629B729D8
:10036C00FC2930170130A5002508A007BC01BD01F0
:10037C00EB290A30F0000030F100831603133D081E
:10038C00F3003C08F2000A168A1521240A128A117D
:10039C00710883160313BD007008BC00200884008C
:1003AC000A168A1100200A128A11D03EA500FF30CD
:1003BC0003180030A6002508BC070318BD0A260840
:1003CC00BD070130A5002508A007200884000A16E7
:1003DC008A1100200A128A110A168A159F230A1202
:1003EC008A110318FA29FB29BF29022ABC01BD0175
:1003FC003016022A30151E2A013083160313A0076B
:10040C00FF30200784000A168A1100200A128A1174
:10041C00C200A500A6012608003A0319162AD02FFF
:10042C002508003A0319E22F663A0319002AD02F47
:10043C0000302F05A50007303005A600250826043E
:10044C000319292A2A2A8B2F301E2D2A2E2A322ACA
:10045C000630BC000030BD002E0884008313000859
:10046C00BE00840A0008BF00840A0008C000840A89
:10047C000008C1000430A5002508AE074108F300B0
:10048C004008F2003F08F1003E08F0000030F70091
:10049C000030F6000030F5000030F4000A168A1126
:1004AC00EE200A128A1103185C2A5D2A7A2A831616
:1004BC0003134108F3004008F2003F08F1003E0826
:1004CC00F0000A168A1588230A128A1173088316FB
:1004DC000313C1007208C0007108BF007008BE0091
:1004EC000330AF040030B00483160313B501B6011A
:1004FC004108F3004008F2003F08F1003E08F0000C
:10050C000030F7000030F6000030F5000030F40049
:10051C000A168A15A7240A128A110318962A972AF2
:10052C00872B031083160313400D410D823EB5003B
:10053C00FF3003180030B600FF30B5070318B60AB9
:10054C00FF30B6070330F0000030F1003608F3003E
:10055C003508F2000A168A1521240A128A1171082C
:10056C0083160313B6007008B5000A30F70000308C
:10057C00F8003608FA003508F9000A168A155A26CA
:10058C000A128A11780883160313B6007708B5008F
:10059C00B61FD12AD22AD82AFF30B5070318B60ABB
:1005AC00FF30B6073503FF3A0A128A1540210A12AA
:1005BC008A1183120313410883160313BA008312A2
:1005CC000313400883160313B900831203133F0867
:1005DC0083160313B800831203133E088316031308
:1005EC00B700410883120313A700831603134008B6
:1005FC0083120313A600831603133F0883120313FD
:10060C00A500831603133E0883120313A40083165C
:10061C0003133A0883120313AB0083160313390830
:10062C0083120313AA0083160313380883120313CF
:10063C00A90083160313370883120313A8000A12A8
:10064C008A159F240A128A11831203132708831612
:10065C000313BA0083120313260883160313B9007D
:10066C0083120313250883160313B8008312031394
:10067C00240883160313B7003A08F3003908F20074
:10068C003808F1003708F0003F30F7008030F600F2
:10069C000030F5000030F4000A168A11EE200A1220
:1006AC008A1103185A2B5B2B642BFF308316031310
:1006BC00B5070318B60AFF30B607872B831603134A
:1006CC003A08F3003908F2003808F1003708F00056
:1006DC004130F7002030F6000030F5000030F40017
:1006EC000A168A11EE200A128A11031C7E2B7F2B0C
:1006FC00872B013083160313B5070318B60A003095
:10070C00B607831603133D08803AFF0080307F0242
:10071C00031D922B0D303C020318952B962BDD2BD1
:10072C00831603133C080A168A116D230A128A11C8
:10073C00831203134108D5004008D4003F08D300AE
:10074C003E08D20083160313410883120313D90009
:10075C0083160313400883120313D8008316031364
:10076C003F0883120313D700831603133E0883122A
:10077C000313D6000A168A1178250A128A118312DD
:10078C000313550883160313C10083120313540873
:10079C0083160313C0008312031353088316031329
:1007AC00BF0083120313520883160313BE00831673
:1007BC0003133608803AFF0080307F02031DE82BBC
:1007CC000A3035020318EB2BEC2B3D2C831603134C
:1007DC004108F3004008F2003F08F1003E08F00029
:1007EC000030F7000030F6000030F5000030F40067
:1007FC000A168A15A7240A128A110318062C072C2C
:10080C00AF2C83160313410883120313C100831604
:10081C000313400883120313C000831603133F080D
:10082C0083120313BF00831603133E0883120313B2
:10083C00BE000A128A150A200A128A1183120313A7
:10084C00410840043F043E04031D2D2C2E2CAF2CDC
:10085C00831603133608803AFF0080307F02031D95
:10086C00392C02303502031C3C2C3D2CAF2C83164A
:10087C0003133A08F3003908F2003808F10037087E
:10088C00F0004030F7008930F6007030F5005F3032
:10089C00F4000A168A11EE200A128A110318572C3A
:1008AC00582C612CF73083160313B5070318B60ABE
:1008BC00FF30B607692CF83083160313B5070318FD
:1008CC00B60AFF30B60735080A128A1540210A12FB
:1008DC008A1183120313410883160313BA0083127F
:1008EC000313400883160313B900831203133F0844
:1008FC0083160313B800831203133E0883160313E5
:10090C00B7004108F3004008F2003F08F1003E0830
:10091C00F0003A08F7003908F6003808F5003708F7
:10092C00F4000A128A11D1200A128A117308831654
:10093C000313B4007208B3007108B2007008B10060
:10094C000030C1000030C0000030BF000030BE00DD
:10095C00332D83160313410883120313C10083162E
:10096C000313400883120313C000831603133F08BC
:10097C0083120313BF00831603133E088312031361
:10098C00BE000A128A150A200A128A118312031356
:10099C00410883160313B400831203134008831613
:1009AC000313B300831203133F0883160313B2001F
:1009BC00831203133E0883160313B1003408F300AB
:1009CC003308F2003208F1003108F00000300A124E
:1009DC008A1586200A128A11730883120313E90000
:1009EC007208E8007108E7007008E600831603132C
:1009FC00410883120313ED0083160313400883127E
:100A0C000313EC00831603133F0883120313EB004C
:100A1C00831603133E0883120313EA000A168A1581
:100A2C00FD230A128A118312031369088316031318
:100A3C00C10083120313680883160313C0008312CA
:100A4C000313670883160313BF008312031366088E
:100A5C0083160313BE00B501B601C201C20A4208D7
:100A6C00A50001300310A50DFF3E031D382D03100A
:100A7C00250D693E84000A168A1100200A128A117B
:100A8C00A6000A168A1100200A128A11A7000A165B
:100A9C008A1100200A128A11A8000A168A11002055
:100AAC000A128A11A90029083402031D672D28088F
:100ABC003302031D672D27083202031D672D2608FC
:100ACC00310203186A2D6B2D6C2D762D0130A5008B
:100ADC002508C2070A304206031D752D762D352DCB
:100AEC0003302F05A50000303005A600250826048C
:100AFC000319812D822DF42D2D30A5003B08840087
:100B0C002508831380000130A5002508BB07F42DB0
:100B1C004208A50001300310A50DFF3E031D912DC9
:100B2C000310250D693E84000A168A1100200A1252
:100B3C008A11F0000A168A1100200A128A11F1009B
:100B4C000A168A1100200A128A11F2000A168A115A
:100B5C0000200A128A11F3003408F7003308F6005B
:100B6C003208F5003108F4000A168A15F4250A1229
:100B7C008A11730883160313BA007208B90071083E
:100B8C00B8007008B7000030F3000030F2000030FD
:100B9C00F1000A30F0003A08F7003908F60038087E
:100BAC00F5003708F4000A168A1547250A128A112F
:100BBC00730883160313BA007208B9007108B800E1
:100BCC007008B7003708303EA5003B0884002508A4
:100BDC00831380000130A5002508BB070130C20239
:100BEC00420A031DFA2DFB2D8E2D0F2E303083164D
:100BFC000313A5003B0884002508831380000130F3
:100C0C00A5002508BB07FF30B5070318B60AFF304F
:100C1C00B6073608803AFF0080307F02031D182E7D
:100C2C000130350203181B2E1C2EFC2D83160313CA
:100C3C003D08803AFF0080307F02031D272E0930CB
:100C4C003C02031C2A2E2B2E322E08308316031343
:100C5C00A5002508C200382E831603133C08A500F6
:100C6C002508C2004208A500A6012508BC022608DA
:100C7C00031CBD03BD0242080319452E462E512EFE
:100C8C002E30A5003B08840025088313800001301A
:100C9C00A5002508BB0742080A128A1540210A1232
:100CAC008A1183120313410883160313AD008312B8
:100CBC000313400883160313AC00831203133F087D
:100CCC0083160313AB00831203133E08831603131E
:100CDC00AA002D0883120313AB00831603132C08F0
:100CEC0083120313AA00831603132B088312031316
:100CFC00A900831603132A0883120313A800831672
:100D0C000313410883120313A7008316031340082F
:100D1C0083120313A600831603133F0883120313D5
:100D2C00A500831603133E0883120313A4000A12B2
:100D3C008A159F240A128A11831203132708C100F3
:100D4C002608C0002508BF002408BE000A128A1518
:100D5C000A200A128A118312031341088316031303
:100D6C00B40083120313400883160313B3008312D9
:100D7C0003133F0883160313B200831203133E08B8
:100D8C0083160313B1006B2F4208A500013003102A
:100D9C00A50DFF3E031DCD2E0310250D693E8400CD
:100DAC000A168A1100200A128A11F0000A168A11FA
:100DBC0000200A128A11F1000A168A1100200A1268
:100DCC008A11F2000A168A1100200A128A11F30005
:100DDC003408F7003308F6003208F5003108F40047
:100DEC000A168A15F4250A128A117308831603133E
:100DFC00BA007208B9007108B8007008B70000306A
:100E0C00F3000030F2000030F1000A30F0003A0834
:100E1C00F7003908F6003808F5003708F4000A1610
:100E2C008A1547250A128A11730883160313BA0010
:100E3C007208B9007108B8007008B7003708303E66
:100E4C00A5003B0884002508831380000130A50011
:100E5C002508BB074208A50001300310A50DFF3E75
:100E6C00031D332F0310250D693E84000A168A11C9
:100E7C0000200A128A11F0000A168A1100200A12A8
:100E8C008A11F1000A168A1100200A128A11F20046
:100E9C000A168A1100200A128A11F3003408F7008E
:100EAC003308F6003208F5003108F4000A168A15EA
:100EBC0047250A128A11730883160313B4007208AB
:100ECC00B3007108B2007008B1000130C202420ACE
:100EDC00031D712F722FCA2E842F3030A5003B08B2
:100EEC0084002508831380000130A5002508BB076A
:100EFC00FF30BC070318BD0AFF30BD073C083D049A
:100F0C00031D892F8A2F732FD02F3C083D04031DFE
:100F1C00902F912F9F2F3408330432043104031D7A
:100F2C00982F992F9F2F0130BC070318BD0A003052
:100F3C00BD073D08803A803C031DA62F3C084202A9
:100F4C000318A92FAA2FAB2FBA2F831603133D0812
:100F5C00803AA50080302502031DB62F42083C02C2
:100F6C000318B92FBA2FBA2F0330831603132F058A
:100F7C00A50000303005A600250826040319C72F4C
:100F8C00C82FD02F2D30A5003B08840025088313D3
:100F9C008000A4290130A007FF30200784000A1626
:100FAC008A1100200A128A11A5002508C2004208E5
:100FBC00031DE12FE22F97293B0884008313800146
:100FCC00080083160313E8018313D3308400E83040
:100FDC000A128A1502200A128A1183179030840093
:100FEC00A0300A128A1502200A128A1183010A16ED
:040FFC008A15C32E61
:1010040064008001840A04060319003404060328DA
:10101400031083120313400D410DC2004208C8009F
:101024004808031D1628172820280030C100003066
:10103400C0000030BF000030BE0085283E08C2005A
:101044003F08C3004008C4004108C5001F30031016
:10105400C50CC40CC30CC20CFF3E031D2928420856
:10106400C6004608C700C017FF30BE05FF30BF05E5
:10107400FF30C0050030C1059630C802C81F4328A0
:1010840044285E284808803A973E03184A284B288B
:101094004C28172801300310C10CC00CBF0CBE0C27
:1010A400FF3E031D4D280130C2004208C807031D3E
:1010B4005C285D284C28752820304802031C6328CE
:1010C4006428702817280130C2000310BE0DBF0D1C
:1010D400C00DC10DC20B67280130C8024808031DAA
:1010E4007428752865284708031979287A288528DB
:1010F400BE09BF09C009C109BE0A0319BF0A031901
:10110400C00A0319C10A0800F800780803198B28DB
:101114008C28A028F31F8F289028A0287009FA0093
:101124007109FB007209FC007309FD00FA0A031936
:10113400FB0A0319FC0A0319FD0AA8287308FD0019
:101144007208FC007108FB007008FA00730872044E
:1011540071047004031DAF28B028B9280030F300CF
:101164000030F2000030F1000030F0003F299630EA
:10117400F4007408F900CB280130F4007408F9076E
:1011840001300310FD0CFC0CFB0CFA0CFF3E031D9C
:10119400C328FE307D05031DD028D128BE28ED28A4
:1011A4000130F4007408F9070130FA07003003181D
:1011B4000130FB07003003180130FC07003003182E
:1011C4000130FD0701300310FD0CFC0CFB0CFA0C84
:1011D400FF3E031DE528FF307D05031DF228F3289B
:1011E400D228FF280130F9020130F4000310FA0D6F
:1011F400FB0DFC0DFD0DF40BF828FC1B0229032943
:10120400092902307902031808290929F4287918D0
:101214000C290D291529FF30FA05FF30FB057F3015
:10122400FC05FF30FD050310F90C7908F400F50105
:10123400F601F70118300310F40DF50DF60DF70D56
:10124400FF3E031D1D297408FA047508FB04760883
:10125400FC047708FD047808031931293229372959
:10126400F31F352936293729FD177D08F3007C083B
:10127400F2007B08F1007A08F000080083120313DF
:10128400D000D01F46294729F42AD009D00A500893
:10129400803A123E031C4F295029382A0A30F7009D
:1012A4000030F8005008F200F301F21BF30364303D
:1012B400F0000030F1000A168A159B250A128A15DF
:1012C4007108FA007008F9000A168A155A260A12DB
:1012D4008A15770883120313C20001300310C20D6C
:1012E400FF3E031D70290310420D593E84000A1667
:1012F4008A1100200A128A15C3000A168A110020D6
:101304000A128A15C4000A168A1100200A128A15C4
:10131400C5000A168A1100200A128A15C60046085A
:10132400A7004508A6004408A5004308A4006430AB
:10133400F7000030F8005008F900FA01F91BFA032D
:101344000A168A155A260A128A1577088312031375
:10135400C70001300310C70DFF3E031DAC29031065
:10136400470D7D3E84000A168A1100200A128A1550
:10137400C8000A168A1100200A128A15C9000A1622
:101384008A1100200A128A15CA000A168A1100203E
:101394000A128A15CB004B08AB004A08AA00490878
:1013A400A9004808A8000A128A159F240A128A155F
:1013B400831203132708CF002608CE002508CD008A
:1013C4002408CC000A30F0000030F1005008F2008C
:1013D400F301F21BF3030A168A159B250A128A15D8
:1013E400700883120313C20001300310C20DFF3EC4
:1013F400031DF7290310420D353E84000A168A1195
:1014040000200A128A15C3000A168A1100200A1243
:101414008A15C4000A168A1100200A128A15C5000A
:101424000A168A1100200A128A15C6004608A70067
:101434004508A6004408A5004308A4004F08AB00D3
:101444004E08AA004D08A9004C08A8000A128A15E3
:101454009F240A128A15831203132708C100260841
:10146400C0002508BF002408BE009E2C5008803A06
:10147400753E031C3E2A3F2AC72A0A30F00000307A
:10148400F1005008F200F301F21BF3030A168A1567
:101494009B250A128A15700883120313C2000130B7
:1014A4000310C20DFF3E031D522A0310420D353EA8
:1014B40084000A168A1100200A128A15C3000A162B
:1014C4008A1100200A128A15C4000A168A11002003
:1014D4000A128A15C5000A168A1100200A128A15F2
:1014E400C6004608A7004508A6004408A50043080E
:1014F400A4000A30F7000030F8005008F900FA019F
:10150400F91BFA030A168A155A260A128A1577084D
:1015140083120313C70001300310C70DFF3E031DE0
:101524008E2A0310470D593E84000A168A110020A2
:101534000A128A15C8000A168A1100200A128A158E
:10154400C9000A168A1100200A128A15CA000A164E
:101554008A1100200A128A15CB004B08AB004A08F6
:10156400AA004908A9004808A8000A128A159F245D
:101574000A128A15831203132708C1002608C00023
:101584002508BF002408BE009E2C5008C20001306C
:101594000310C20DFF3E031DCA2A0310420D353E3F
:1015A40084000A168A1100200A128A15C3000A163A
:1015B4008A1100200A128A15C4000A168A11002012
:1015C4000A128A15C5000A168A1100200A128A1501
:1015D400C6004608C1004508C0004408BF004308CF
:1015E400BE009E2C5008803A123E031CFA2AFB2AA5
:1015F400E32B0A30F7000030F8005008F200F30142
:10160400F21BF3036430F0000030F1000A168A156F
:101614009B250A128A157108FA007008F9000A1647
:101624008A155A260A128A15770883120313C200F0
:1016340001300310C20DFF3E031D1B2B0310420D8E
:10164400253E84000A168A1100200A128A15C30056
:101654000A168A1100200A128A15C4000A168A1171
:1016640000200A128A15C5000A168A1100200A12DF
:101674008A15C6004608A7004508A6004408A50028
:101684004308A4006430F7000030F8005008F90063
:10169400FA01F91BFA030A168A155A260A128A1540
:1016A400770883120313C70001300310C70DFF3EF0
:1016B400031D572B0310470D493E84000A168A1157
:1016C40000200A128A15C8000A168A1100200A127C
:1016D4008A15C9000A168A1100200A128A15CA003E
:1016E4000A168A1100200A128A15CB004B08AB0097
:1016F4004A08AA004908A9004808A8000A128A153D
:101704009F240A128A15831203132708CF00260880
:10171400CE002508CD002408CC000A30F0000030AB
:10172400F1005008F200F301F21BF3030A168A15C4
:101734009B250A128A15700883120313C200013014
:101744000310C20DFF3E031DA22B0310420D013EE8
:1017540084000A168A1100200A128A15C3000A1688
:101764008A1100200A128A15C4000A168A11002060
:101774000A128A15C5000A168A1100200A128A154F
:10178400C6004608A7004508A6004408A50043086B
:10179400A4004F08AB004E08AA004D08A9004C084D
:1017A400A8000A128A159F240A128A1583120313A9
:1017B4002708C1002608C0002508BF002408BE0071
:1017C4009E2C5008803A753E031CE92BEA2B722CA0
:1017D4000A30F0000030F1005008F200F301F21B6F
:1017E400F3030A168A159B250A128A1570088312B8
:1017F4000313C20001300310C20DFF3E031DFD2B75
:101804000310420D013E84000A168A1100200A12B8
:101814008A15C3000A168A1100200A128A15C40008
:101824000A168A1100200A128A15C5000A168A119E
:1018340000200A128A15C6004608A7004508A6001B
:101844004408A5004308A4000A30F7000030F8005B
:101854005008F900FA01F91BFA030A168A155A26E8
:101864000A128A15770883120313C7000130031084
:10187400C70DFF3E031D392C0310470D253E840080
:101884000A168A1100200A128A15C8000A168A113B
:1018940000200A128A15C9000A168A1100200A12A9
:1018A4008A15CA000A168A1100200A128A15CB006A
:1018B4004B08AB004A08AA004908A9004808A80038
:1018C4000A128A159F240A128A1583120313270801
:1018D400C1002608C0002508BF002408BE009E2CB5
:1018E4005008C20001300310C20DFF3E031D752CC9
:1018F4000310420D013E84000A168A1100200A12C8
:101904008A15C3000A168A1100200A128A15C40017
:101914000A168A1100200A128A15C5000A168A11AD
:1019240000200A128A15C6004608C1004508C000F6
:101934004408BF004308BE000800831203132708AD
:101944008039AC002C08B1002708AC002C07AD008E
:101954002D08B700A61FAF2CB02CB12C37143708B4
:101964000319B52CB62CC52C370A031DBA2CBB2C75
:10197400C32C0030A7000030A6000030A5000030C2
:10198400A400A617CD2C0030A7000030A60000301C
:10199400A5000030A4002B088039AC002C08B10647
:1019A4002B08AC002C07AD002D08B600AA1FDB2CB9
:1019B400DC2CDD2C361436080319E12CE22CF12C36
:1019C400360A031DE62CE72CEF2C0030AB00003068
:1019D400AA000030A9000030A800AA17F92C003092
:1019E400AB000030AA000030A9000030A80036087F
:1019F4000319FD2CFE2C032D3708031D022D032D86
:101A04000C2D0030A7000030A6000030A5000030E7
:101A1400A400FF2F2408AC002C08F0002A080A16A2
:101A24008A1546240A128A15710883120313BD000D
:101A34007008BC003C08AC00AD01AE01AF012F083A
:101A4400B5002E08B4002D08B3002C08B2003D08E0
:101A5400AC00AD01AE01AF012F08BB002E08BA00E7
:101A64002D08B9002C08B8002508AC002C08F0009B
:101A740029080A168A1546240A128A15710883123F
:101A84000313BD007008BC003C08AC00AD01AE01FE
:101A9400AF012C08B2072D0803110318013E0319E6
:101AA400542DB3072E0803110318013E03195B2DAF
:101AB400B4072F0803110318013E0319622DB5075B
:101AC4003D08AC00AD01AE01AF012C08B8072D08EC
:101AD40003110318013E0319702DB9072E080311D1
:101AE4000318013E0319772DBA072F0803110318B1
:101AF400013E03197E2DBB072608AC002C08F0001C
:101B040028080A168A1546240A128A1571088312AF
:101B14000313BD007008BC003C08AC00AD01AE016D
:101B2400AF012C08B2072D0803110318013E031955
:101B34009C2DB3072E0803110318013E0319A32D8E
:101B4400B4072F0803110318013E0319AA2DB50782
:101B54003D08AC00AD01AE01AF012C08B8072D085B
:101B640003110318013E0319B82DB9072E080311F8
:101B74000318013E0319BF2DBA072F0803110318D8
:101B8400013E0319C62DBB070830AC000310B20D8B
:101B9400B30DB40DB50DAC0BC82D2508AC002C0845
:101BA400F00028080A168A1546240A128A157108B4
:101BB40083120313BD007008BC003C08AC003D0850
:101BC400AD00AE01AF012C08B2072D0803110318B4
:101BD400013E0319EE2DB3072E0803110318013E2D
:101BE4000319F52DB4072F0803110318013E031937
:101BF400FC2DB5072408AC002C08F00029080A16AF
:101C04008A1546240A128A15710883120313BD002B
:101C14007008BC003C08AC003D08AD00AE01AF014B
:101C24002C08B2072D0803110318013E03191B2EBB
:101C3400B3072E0803110318013E0319222EB4071B
:101C44002F0803110318013E0319292EB507083084
:101C5400AC000310B20DB30DB40DB50DAC0B2B2EAF
:101C64002408AC002C08F00028080A168A1546241B
:101C74000A128A15710883120313BD007008BC0090
:101C84003C08AC003D08AD00AE01AF012C08B20722
:101C94002D0803110318013E0319512EB3072E0812
:101CA40003110318013E0319582EB4072F0803111A
:101CB4000318013E03195F2EB5072508AC002C0854
:101CC400F0002A080A168A1546240A128A15710891
:101CD40083120313BD007008BC003C08AC003D082F
:101CE400AD00AE01AF012C08B8072D08031103188D
:101CF400013E03197E2EB9072E0803110318013E75
:101D04000319852EBA072F0803110318013E03197E
:101D14008C2EBB072608AC002C08F00029080A16F4
:101D24008A1546240A128A15710883120313BD000A
:101D34007008BC003C08AC003D08AD00AE01AF012A
:101D44002C08B8072D0803110318013E0319AB2E04
:101D5400B9072E0803110318013E0319B22EBA075E
:101D64002F0803110318013E0319B92EBB072608D7
:101D7400AC002C08F0002A080A168A1546240A1218
:101D84008A15710883120313BD007008BC003C0857
:101D9400AC003D08AD00AE01AF0108300310AC0D3E
:101DA400AD0DAE0DAF0DFF3E031DD02E2C08B807B0
:101DB4002D0803110318013E0319E12EB9072E085B
:101DC40003110318013E0319E82EBA072F08031163
:101DD4000318013E0319EF2EBB073208AC00330889
:101DE400AD003408AE003508AF0018300310AF0C56
:101DF400AE0CAD0CAC0CFF3E031DF82E2C08B8073E
:101E04002D0803110318013E0319092FB9072E08E1
:101E140003110318013E0319102FBA072F080311E9
:101E24000318013E0319172FBB070830AC00031039
:101E3400B20DB30DB40DB50DAC0B192F3708360721
:101E4400AC00AD01AD0D2C08823EBC002D0803187A
:101E5400013EFF3EBD004B2F0130AC000310B80D16
:101E6400B90DBA0DBB0DAC0B302FB51F3A2F3B2F5C
:101E74003C2F38140130AC000310B20DB30DB40D77
:101E8400B50DAC0B3E2FFF30BC070318BD0AFF3065
:101E9400BD07BA1F4E2F4F2F2E2FB601B51F532F3C
:101EA400542F702FFF303205AC00FF303305AD00E6
:101EB400FF303405AE007F303505AF002F082E0407
:101EC4002D042C040319672F682F6B2FB601B60A53
:101ED400702F381C6E2F6F2F702F682F3608031940
:101EE400742F752FA62F0130B80700300318013066
:101EF400B907003003180130BA0700300318013065
:101F0400BB073B1C862F872FA62F3808AC00390847
:101F1400AD003A08AE003B08AF000130B0002F0D11
:101F2400AF0CAE0CAD0CAC0CB00B912F2F08BB005A
:101F34002E08BA002D08B9002C08B8000130BC07DF
:101F44000318BD0A0030BD073D08803AFF00803009
:101F54007F02031DAF2FFF303C02031CB22FB32FAF
:101F6400BE2F7F3083120313BB008030BA000030D1
:101F7400B9000030B800F32F831203133D08803AF0
:101F8400FF0080307F02031DC92F01303C0203187B
:101F9400CC2FCD2FD92F003083120313BB00003078
:101FA400BA000030B9000030B800B101F32F831239
:101FB40003133C08AC002C08B700FF30B805FF3011
:101FC400B9057F30BA050030BB05371CEA2FEB2F6B
:101FD400EC2FBA173708AC0003102C0CAD002D08F9
:101FE400BB003108AC002C08BB043B08A7003A082E
:101FF400A6003908A5003808A400080010308A009B
:102004000408840A820700340034003480343F34E6
:10201400003400342034413400340034C8344234B1
:10202400003400347A344434003440341C344634AC
:1020340000345034C33447340034243474344934C1
:102044008034963418344B342034BC34BE344C348D
:1020540028346B346E344E34F9340234153450342D
:10206400EC347834AD346034CA34F23449347134E5
:102074000034003480343F34CD34CC34CC343D345B
:102084000A34D73423343C346F34123483343A342E
:102094001734B734D1343834AC34C53427343734F6
:1020A400BD343734863435349534BF34D634333480
:1020B4007734CC342B3432345F3470348934303454
:1020C400FF34E634DB342E340834E5343C341E3437
:1020D40060344234A2340D3401340034003400340A
:1020E4000A340034003400346434003400340034DE
:1020F400E83403340034003410342734003400341A
:10210400A034863401340034403442340F34003473
:1021140080349634983400340034E134F534053492
:102124000034CA349A343B344434693473347434D8
:1021340061346E34633465343A34203425342E34B7
:0621440032346634003461
:10215400FB01FC01760877040319B128B228E928A9
:10216400FD01FD0AC02801300310F60DF70DFF3EF6
:10217400031DB6280130FA007A08FD07F71FC328AB
:10218400C428B52801300310FB0DFC0DFF3E031DD0
:10219400C52877087902031DD12876087802031C24
:1021A400D428D528DC287608F8027708031CF9031C
:1021B400F9027B1401300310F70CF60CFF3E031DEB
:1021C400DD280130FD02031DE828E928C4287C0825
:1021D400F7007B08F600080000307005F8000030B6
:1021E4007105F90080307205FA007F307305FB0039
:1021F4007B087A0479047804031D012902290A2939
:102204000030F3000030F2000030F1000030F00044
:1022140000307405F80000307505F900803076054B
:10222400FA007F307705FB007B087A047904780490
:10223400031D1D291E2926290030F7000030F60051
:102244000030F5000030F400F31F29292A294E2913
:102254000030F8000030F9000030FA008030FB0054
:102264007008F8027108031C710F39293A29F90220
:102274007208031C720F3F294029FA027308031CD9
:10228400730F45294629FB027B08F3007A08F20004
:102294007908F1007808F000F71F512952297629AE
:1022A4000030F8000030F9000030FA008030FB0004
:1022B4007408F8027508031C750F61296229F90274
:1022C4007608031C760F67296829FA027708031C2D
:1022D400770F6D296E29FB027B08F7007A08F60058
:1022E4007908F5007808F4008030F3068030F706AA
:1022F40077087302031D882976087202031D882952
:1023040075087102031D88297408700203188B294B
:102314008C298E2903108F290314080083120313B8
:1023240027088039A8002808B1002708A800280732
:10233400A9002908B800A61FA029A129A229381498
:1023440038080319A629A729B729380A031DAB2978
:10235400AC29B4290030A7000030A6000030A50045
:102364000030A400A617A701BF290030A700003041
:10237400A6000030A5000030A40023088039A8007E
:102384002808B1062308A8002807A9002908B900CD
:10239400A21FCD29CE29CF29391439080319D329ED
:1023A400D429E429390A031DD829D929E12900307F
:1023B400A3000030A2000030A1000030A000A2174A
:1023C400A301EC290030A3000030A2000030A100DA
:1023D4000030A0002308220421042004031DF32953
:1023E400F4290D2A0030A7000030A6000030A50013
:1023F4000030A4008030A6047F30A7043108A80070
:102404002808A7042708A3002608A2002508A1007D
:102414002408A0006C2B3808031D112A122A1B2A39
:102424000030A3000030A2000030A1000030A00062
:102434006C2B3808A800A9012908AB003908280228
:10244400AA00031CAB032A087F3EB2002B08031822
:10245400013E003EB3002708B0002608AF0025085F
:10246400AE002408AD000030A7000030A600003004
:10247400A5000030A4000030B7000030B6000030E2
:10248400B5000030B400B901912A390803194B2A68
:102494004C2A6C2A0130A8000310AD0DAE0DAF0D0F
:1024A400B00DA80B4E2A0130A8000310A40DA50DF1
:1024B400A60DA70DA80B572AB71F612A622A632A03
:1024C40024140130A8000310B40DB50DB60DB70DDA
:1024D400A80B652A23083002031D7A2A22082F023A
:1024E400031D7A2A21082E02031D7A2A20082D02B0
:1024F400031C7D2A7E2A8D2A37172008AD02210865
:10250400031C210FAE022208031C220FAF02230872
:10251400031C230FB0020130A8002808B9071A30A1
:102524003902031C962A972A472A30082F042E04BE
:102534002D0403199E2A9F2ABE2A3414BE2A013070
:10254400A8000310A40DA50DA60DA70DA80BA32A82
:10255400B71FAD2AAE2AAF2A24140130A8000310F5
:10256400B40DB50DB60DB70DA80BB12AFF30B207E7
:102574000318B30AFF30B307A61FC12AC22AA12A2F
:10258400B901B71FC62AC72AE32AFF303405A800B9
:10259400FF303505A900FF303605AA007F30370526
:1025A400AB002B082A04290428040319DA2ADB2A9D
:1025B400DE2AB901B90AE32A241CE12AE22AE32A21
:1025C400DB2A39080319E72AE82A192B0130A40762
:1025D400003003180130A507003003180130A607A6
:1025E400003003180130A707271CF92AFA2A192BEF
:1025F4002408A8002508A9002608AA002708AB007B
:102604000130AC002B0DAB0CAA0CA90CA80CAC0B24
:10261400042B2B08A7002A08A6002908A5002808CF
:10262400A4000130B2070318B30A0030B30733081B
:10263400803AFF0080307F02031D222BFF303202DC
:10264400031C252B262B342BFF3083120313B200DB
:102654000030B3000030A7000030A6000030A50011
:102664000030A400831203133308803AFF00803043
:102674007F02031D3F2B013032020318422B432BF0
:10268400502B83120313B201B3010030A7000030B2
:10269400A6000030A5000030A400B101831203138A
:1026A4003208A8002808B800381C592B5A2B5C2B78
:1026B400A617602B7F30A8002808A6053808A800B4
:1026C4000310280CA9002908A7003108A80028082D
:1026D400A704042A080083120313D1006E305102A8
:1026E400031C752B762B832C3F30A7000030A600EB
:1026F4000030A5000030A4006430F6000030F7007C
:102704005108C200C3014208F8004308F9000A1640
:102714008A11AA200A168A11760883120313C400A8
:1027240001300310C40DFF3E031D932B0310440D11
:102734007D3E84000A168A1100200A168A11C500FB
:102744000A168A1100200A168A11C6000A168A116E
:1027540000200A168A11C7000A168A1100200A16D8
:102764008A11C8004808AB004708AA004608A90017
:102774004508A8000A128A159F240A168A11831292
:1027840003132708D0002608CF002508CE0024080C
:10279400CD000A30F6000030F7005108C200C30132
:1027A4004208F2004308F3006430F0000030F10006
:1027B4000A168A156D240A168A117108F900700820
:1027C400F8000A168A11AA200A168A1176088312BA
:1027D4000313C40001300310C40DFF3E031DED2B91
:1027E4000310440D593E84000A168A1100200A166B
:1027F4008A11C5000A168A1100200A168A11C60019
:102804000A168A1100200A168A11C7000A168A11AC
:1028140000200A168A11C8004808A7004708A60025
:102824004608A5004508A4005008AB004F08AA00BC
:102834004E08A9004D08A8000A128A159F240A16FA
:102844008A11831203132708CC002608CB0025081D
:10285400CA002408C9000A30F0000030F100510811
:10286400C200C3014208F2004308F3000A168A15A5
:102874006D240A168A11700883120313C4000130F0
:102884000310C40DFF3E031D422C0310440D353EBE
:1028940084000A168A1100200A168A11C5000A1635
:1028A4008A1100200A168A11C6000A168A1100200D
:1028B4000A168A11C7000A168A1100200A168A11FC
:1028C400C8004808A7004708A6004608A500450810
:1028D400A4004C08AB004B08AA004A08A900490808
:1028E400A8000A128A159F240A168A118312031358
:1028F4002708C1002608C0002508BF002408BE0020
:10290400772D0B305102031C882C892C342D3F3039
:10291400A7000030A6000030A5000030A4000A3053
:10292400F6000030F7005108C200C3014208F80065
:102934004308F9000A168A11AA200A168A11760891
:1029440083120313C40001300310C40DFF3E031DA2
:10295400A62C0310440D593E84000A168A11002047
:102964000A168A11C5000A168A1100200A168A114D
:10297400C6000A168A1100200A168A11C7000A1610
:102984008A1100200A168A11C8004808AB004708BB
:10299400AA004608A9004508A8000A128A159F241F
:1029A4000A168A11831203132708D0002608CF00C1
:1029B4002508CE002408CD000A30F0000030F100D4
:1029C4005108C200C3014208F2004308F3000A168A
:1029D4008A156D240A168A11700883120313C40021
:1029E40001300310C40DFF3E031DF32C0310440DEE
:1029F400353E84000A168A1100200A168A11C50081
:102A04000A168A1100200A168A11C6000A168A11AB
:102A140000200A168A11C7000A168A1100200A1615
:102A24008A11C8004808A7004708A6004608A50060
:102A34004508A4005008AB004F08AA004E08A9009E
:102A44004D08A8000A128A159F240A168A118312B7
:102A540003132708C1002608C0002508BF00240866
:102A6400BE00772D3F30A7000030A6000030A5003F
:102A74000030A4005108C20001300310C20DFF3E13
:102A8400031D3F2D0310420D353E84000A168A11A2
:102A940000200A168A11C3000A168A1100200A1699
:102AA4008A11C4000A168A1100200A168A11C50068
:102AB4000A168A1100200A168A11C6004608AB00BD
:102AC4004508AA004408A9004308A8000A128A1568
:102AD4009F240A168A11831203132708C1002608AB
:102AE400C0002508BF002408BE0008008312031399
:102AF40055088039DA005A08E2005508DA005A0706
:102B0400DB005B08E400D41F882D892D8A2D641412
:102B1400640803198E2D8F2D9F2D640A031D932D98
:102B2400942D9C2D0030D5000030D4000030D3000B
:102B34000030D200D417D501A72D0030D5000030C5
:102B4400D4000030D3000030D20059088039DA00B4
:102B54005A08E300630862060319B12DB22DB32DA0
:102B640062175908DA005A07DB005B08E300D81F34
:102B7400BC2DBD2DBE2D631463080319C22DC32DB6
:102B8400D32D630A031DC72DC82DD02D0030D900C5
:102B94000030D8000030D7000030D600D817D90153
:102BA400DB2D0030D9000030D8000030D7000030D1
:102BB400D600640863020318E02DE12D252E621F60
:102BC400E42DE52DE92D8030DA005A08E206640888
:102BD400DA005A08E5006308DA005A08E4006508D8
:102BE400DA005A08E3005208DA005A08E5005608E9
:102BF400DA005A08D2006508DA005A08D6005308E9
:102C0400DA005A08E5005708DA005A08D3006508C4
:102C1400DA005A08D7005408DA005A08E5005808C0
:102C2400DA005A08D4006508DA005A08D8005508B2
:102C3400DA005A08E5005908DA005A08D500650890
:102C4400DA005A08D900E5016308DA00DB015B0801
:102C5400DD0064085A02DC00031CDD035D08803AD1
:102C6400FF0080307F02031D392E1A305C02031CE2
:102C74003C2E3D2E7A2E831203135508540453041C
:102C84005204031D462E482E0130492E0030DA002E
:102C94005A08E5000030D5000030D4000030D300DD
:102CA4000030D2006308DA005A08E400822E651C62
:102CB4005C2E5D2E662E6508DA0003105A0C01386E
:102CC400DB005B08E500682E0310E50C521C6B2E3C
:102CD4006C2E6D2EE5170130DA00550DD50CD40C91
:102CE400D30CD20CDA0B6F2E0130DA005A08E40749
:102CF4008312031363086402031C812E822E592E4F
:102D0400621B852E862ED12E6408031D8A2E8B2EDF
:102D1400942E0030D5000030D4000030D3000030B1
:102D2400D200FF2F5608D207570803110318013E9B
:102D340003199D2ED307580803110318013E0319E4
:102D4400A42ED407590803110318013E0319AB2E0E
:102D5400D507551CAE2EAF2E852F651CB22EB32E73
:102D6400BC2E6508DA0003105A0C0138DB005B083E
:102D7400E500BE2E0310E50C521CC12EC22EC32E3C
:102D8400E5170130DA00550DD50CD40CD30CD20C58
:102D9400DA0BC52E0130DA005A08E407852F5508EE
:102DA400803AFF005908803A7F02031DE32E580839
:102DB4005402031DE32E57085302031DE32E560845
:102DC40052020318E62EE72E3F2FFF30DA00FF30C1
:102DD400DB00FF30DC00FF30DD005608DE00570862
:102DE400DF005808E0005908E1005208DE025308E9
:102DF400031C530FFE2EFF2EDF025408031C540F36
:102E0400042F052FE0025508031C550F0A2F0B2F22
:102E1400E1025E08DA075F0803185F0F122F132F11
:102E2400DB0760080318600F182F192FDC076108EF
:102E34000318610ADD075D08D5005C08D4005B084F
:102E4400D3005A08D2008030DA005A08E206E509B5
:102E5400E50A6508031D2F2F302F4D2F0130D207AF
:102E6400003003180130D307003003180130D407B1
:102E7400003003180130D5074D2F5608D2025708E9
:102E8400031C570FD3025808031C580FD4025908C7
:102E9400031C590FD5025508540453045204031D4E
:102EA400542F552F812F6508031D592F5A2F812F19
:102EB4000030D5000030D4000030D3000030D20000
:102EC400FF2F0130DA000310D20DD30DD40DD50D30
:102ED400DA0B652FE51F6F2F702F712F5214651CAD
:102EE400742F752F782F0314E50D7A2F0310E50D39
:102EF400640803197E2F7F2F812F0130E402D41F31
:102F0400842F852F632FE301E51F892F8A2F982FA4
:102F140065087F3903198F2F902F932FE301E30A5C
:102F2400982F521C962F972F982F902F63080319D0
:102F34009C2F9D2FD12F0130D20700300318013070
:102F4400D307003003180130D407003003180130D0
:102F5400D507551CAE2FAF2FD12F5208DA005308D6
:102F6400DB005408DC005508DD000130DE005D0D97
:102F7400DD0CDC0CDB0CDA0CDE0BB92F5D08D500A4
:102F84005C08D4005B08D3005A08D200640A031911
:102F9400CC2FCD2FD12F0130DA005A08E407640A70
:102FA4000319D52FD62FDB2F6408031DDA2FDB2F4F
:102FB400E92F0030D5000030D4000030D3000030B9
:102FC400D2006408031DE72FE82FE92FE201641CF7
:102FD400EC2FED2FEF2FD417F32F7F30DA005A08A0
:102FE400D4056408DA0003105A0CDB005B08D50032
:0C2FF400E21FFD2FFE2FFF2FD517080055
:10371000730872047104700403198F2B902B922B81
:103720008030F30608008312031307140630F000FC
:10373000F00B982B00008312031307100800F10010
:10374000F0013A3071020318A62BA72BAF2B3030B3
:103750007102031CAC2BAD2BAF2BF001F00A700CE7
:103760000800F400831203130810881074088800FE
:1037700008152C30F0000130F1000A168A15C62316
:103780000A168A158312031308110800F201F301C7
:10379000F201F301D12B0130F2070318F30A0030D4
:1037A000F30771087302031DD72B70087202031C04
:1037B000DA2BDB2BCB2B0800FA00FB01FC01F12BF1
:1037C0007B087A07F9007908840000080A128A1138
:1037D00006200A168A150130FB070318FC0A003080
:1037E000FC077B087A07F900790884008313000836
:1037F000031DFB2BFC2BE02B0800803083120313EE
:10380000E9066D08D5006C08D4006B08D3006A087F
:10381000D2006908D9006808D8006708D700660890
:10382000D6000A168A1178250A168A158312031300
:103830005508E9005408E8005308E7005208E6007C
:103840000800F401F501701C262C272C2D2C720881
:10385000F4070318F50A7308F50701300310F20D99
:10386000F30DFF3E031D2E2C01300310F10CF00C64
:10387000FF3E031D352C70087104031D402C412CA4
:10388000232C7508F1007408F0000800F800F4011A
:10389000F5017008F200F3017208F6007308F700F2
:1038A000781C532C542C5A2C7608F4070318F50A6C
:1038B0007708F50701300310F60DF70DFF3E031DE5
:1038C0005B2C0310F80C7808031D672C682C502C17
:1038D0007508F1007408F0000800700871040319FD
:1038E000722C732CA22CF501F50A812C01300310E7
:1038F000F00DF10DFF3E031D772C0130F40074082C
:10390000F507F11F842C852C762C71087302031D9A
:103910008B2C70087202031C8E2C8F2C952C700837
:10392000F2027108031CF303F30201300310F10CDF
:10393000F00CFF3E031D962C0130F502031DA12C57
:10394000A22C852C7308F1007208F00008000030EA
:103950007005F80000307105F90080307205FA003A
:103960007F307305FB007B087A0479047804031D1B
:10397000BA2CBB2CC32C0030F3000030F200003016
:10398000F1000030F00000307405F80000307505DB
:10399000F90080307605FA007F307705FB007B0860
:1039A0007A0479047804031DD62CD72CDF2C003040
:1039B000F7000030F6000030F5000030F400770822
:1039C0007306031DED2C76087206031DED2C750899
:1039D0007106031DED2C740870060319F02CF12CF0
:1039E000F32C0310F42C03140800F60083160313C1
:1039F000681CFB2CFC2CFE2C6810012D8312031379
:103A00000810831288107608F4007408F700F0306C
:103A1000F4007408F7050F30F4007408880577087F
:103A2000F4007408880408152C30F0000130F1000F
:103A30000A168A15C6230A168A158312031308115B
:103A40007608F40003300310F40DFF3E031D232D10
:103A50000310740DF5007508F700F030F4007408D9
:103A6000F7050F30F400740888057708F40074082F
:103A7000880408152C30F0000130F1000A168A1570
:103A8000C6230A168A158312031308110800730847
:103A900072047104700403194E2D4F2D922DF901FB
:103AA000F90A5F2D0130F8000310F00DF10DF20D51
:103AB000F30DF80B542D0130F8007808F907F31FC7
:103AC000622D632D522D73087702031D712D72082C
:103AD0007602031D712D71087502031D712D70088A
:103AE0007402031C742D752D832D7008F402710867
:103AF000031C710FF5027208031C720FF6027308A3
:103B0000031C730FF70201300310F30CF20CF10CDD
:103B1000F00CFF3E031D842D0130F902031D912D91
:103B2000922D632D7708F3007608F2007508F100F6
:103B30007408F0000800F601F31F9F2DA02DA72D9B
:103B4000F209F309F20A0319F30AF601F60AF11F62
:103B5000AA2DAB2DB02DF009F109F00A0319F10AD5
:103B6000700871040319B52DB62DE52DF501F50A80
:103B7000C42D01300310F00DF10DFF3E031DBA2DD1
:103B80000130F4007408F507F11FC72DC82DB92DB9
:103B900071087302031DCE2D70087202031CD12D13
:103BA000D22DD82D7008F2027108031CF303F30222
:103BB00001300310F10CF00CFF3E031DD92D013034
:103BC000F502031DE42DE52DC82D76080319E92D16
:103BD000EA2DEF2DF209F309F20A0319F30A73082B
:103BE000F1007208F00008000030FC000030FB001B
:103BF0000030FA000030F900730872047104700498
:103C00000319032E042E512EFD01FD0A142E01303E
:103C1000F8000310F00DF10DF20DF30DF80B092E65
:103C20000130F8007808FD07F31F172E182E072E15
:103C30000130F8000310F90DFA0DFB0DFC0DF80B27
:103C40001A2E73087702031D2F2E72087602031DA9
:103C50002F2E71087502031D2F2E70087402031C8D
:103C6000322E332E422E7008F4027108031C710F9D
:103C7000F5027208031C720FF6027308031C730F1F
:103C8000F702791401300310F30CF20CF10CF00C74
:103C9000FF3E031D432E0130FD02031D502E512E09
:103CA000182E7C08F3007B08F2007A08F1007908EE
:103CB000F000080083120313A101F81F602E612E8B
:103CC000682EF709F809F70A0319F80AA101A10AF1
:103CD000FA1F6B2E6C2E752EF909FA09F90A0319D1
:103CE000FA0A0130FB007B08A106A201A3017708B4
:103CF000780403197C2E7D2EB42EA001A00A8B2EF1
:103D000001300310F70DF80DFF3E031D812E013029
:103D1000FB007B08A007F81F8E2E8F2E802E01300F
:103D20000310A20DA30DFF3E031D902E78087A020A
:103D3000031D9C2E77087902031C9F2EA02EA72E10
:103D40007708F9027808031CFA03FA0222140130FA
:103D50000310F80CF70CFF3E031DA82E0130A00243
:103D6000031DB32EB42E8F2E21080319B82EB92EA1
:103D7000BE2EA209A309A20A0319A30A2308F80068
:103D80002208F70008008316031307108714880120
:103D9000831203130710CF309005901010100C10F1
:103DA0008E018F010A168A1560270A168A150A16CF
:103DB0008A1593230A168A1583120313871CE12E92
:103DC000E22EDC2E8E018F011014871CE82EE92EC6
:103DD000ED2E0C1CEC2EED2EE52E0F088316031392
:103DE000D200831203130E0883160313D10083122B
:103DF000031310104230A300EA30A2000030A100EB
:103E00000030A000831603135108F0005208F1009F
:103E10000030F11BFF30F200F30001300A128A1566
:103E200086200A168A15730883120313A7007208E6
:103E3000A6007108A5007008A4000A168A11902136
:103E40000A168A1583120313230883160313D0005E
:103E500083120313220883160313CF008312031364
:103E6000210883160313CE00831203132008831640
:103E70000313CD00913083120313EE006E088316F6
:103E80000313A0005008A4004F08A3004E08A2008E
:103E90004D08A100C3300A128A118F210A168A1513
:103EA00080300A168A15F5240A168A15C3300A16B8
:103EB0008A15DC230A168A15D72E0A128A110028C1
:103EC0002C30F0000130F1000A168A15C6230A16BC
:103ED0008A1530300A168A15B1230A168A152C3035
:103EE000F0000130F1000A168A15C6230A168A1559
:103EF00030300A168A15B1230A168A152C30F000C4
:103F00000130F1000A168A15C6230A168A153030C8
:103F10000A168A15B1230A168A152C30F0000130D2
:103F2000F1000A168A15C6230A168A1520300A16C9
:103F30008A15B1230A168A152C30F0000130F100E1
:103F40000A168A15C6230A168A150C300A168A150F
:103F5000F5240A168A152C30F0000130F1000A16FB
:103F60008A15C6230A168A1528300A168A15F524DA
:103F70000A168A152C30F0000130F1000A168A1555
:103F8000C6230A168A1504300A168A15F5240A165D
:103F90008A152C30F0000130F1000A168A15C6236C
:103FA0000A168A1585300A168A15F5240A168A1506
:103FB0002C30F0000130F1000A168A15C6230A16CB
:103FC0008A1506300A168A15F5240A168A152C3029
:103FD000F0000130F1000A168A15C6230A168A1568
:103FE00001300A168A15F5240A168A152C30F000BD
:103FF0000130F1000A168A15C6230A168A15080030
:04400E00F720FF3F59
:00000001FF
