:020000040000FA
:060000000A128A110C280F
:10000800FE00030EF0000A08F1000A128A113F28C8
:100018000A128A110F28F50183010A128A1114287D
:100028008316031388018316031789018801831631
:10003800031306148B170B168B100113831203136B
:10004800880136288312031388090630F400133018
:10005800F300AD30F200F20B2F28F30B2F28F40B2E
:100068002F283628750803193A283B2826286300C4
:100078000A128A110C28F5098B1071088A00700E73
:080088008300FE0E7E0E09004C
:04400E000020FF3857
:00000001FF
