:020000040000FA
:100000000A128A11F02F00308A000408840A82073D
:100010000034013400340A34003464340034E834E9
:100020000334103427345434683465346E343A342D
:1000300020342534643400344E346F3477343A3409
:0800400020342534643400343F
:1008CC0064008001840A0406031900340406672CB2
:1008DC00F800831203136714081478080A128A119B
:1008EC0088250A128A110800F400831203130810D9
:1008FC0088107408880008152C30F0000130F100C5
:10090C000A128A118F240A128A11831203130811F6
:10091C000800F201F301F201F3019A2C0130F20705
:10092C000318F30A0030F30771087302031DA02C9F
:10093C0070087202031CA32CA42C942C0800F10048
:10094C006400831603178C18AC2CAD2CA62C7108E4
:10095C00831203178D003F30F000700883160317C5
:10096C008C050C14831203170C080800FC00FA0108
:10097C00FB01D12C7A087C07F90079088400000867
:10098C000A128A116E240A128A110130FA0703180E
:10099C00FB0A0030FB077A087C07F9007908840011
:1009AC0083130008031DDB2CDC2CC02C0800F20088
:1009BC00831603178C18E32CE42CDE2C720883129C
:1009CC0003178D0070088C003F30F10071088316FE
:1009DC0003178C058312031303108B1FF62CF72CB3
:1009EC00F82C03148B13831603170C1555308D003C
:1009FC00AA308D008C140C1183120313031C072DC9
:100A0C00082D092D8B1708007808790403190F2D70
:100A1C00102D3F2DFD01FD0A1E2D01300310F80D88
:100A2C00F90DFF3E031D142D0130FC007C08FD0761
:100A3C00F91F212D222D132D79087B02031D282D42
:100A4C0078087A02031C2B2D2C2D322D7808FA02F3
:100A5C007908031CFB03FB0201300310F90CF80CA2
:100A6C00FF3E031D332D0130FD02031D3E2D3F2D96
:100A7C00222D7B08F9007A08F8000800F501F60130
:100A8C007008710403194B2D4C2D832DF701F70AB7
:100A9C005A2D01300310F00DF10DFF3E031D502DAA
:100AAC000130F4007408F707F11F5D2D5E2D4F2DFA
:100ABC0001300310F50DF60DFF3E031D5F2D71087F
:100ACC007302031D6B2D70087202031C6E2D6F2DAB
:100ADC00762D7008F2027108031CF303F3027514EF
:100AEC0001300310F10CF00CFF3E031D772D01308B
:100AFC00F702031D822D832D5E2D7608F1007508FB
:100B0C00F0000800F60083120313671C8E2D8F2D46
:100B1C00912D6710922D081088107608F400740837
:100B2C00F700F030F4007408F7050F30F400740887
:100B3C0088057708F4007408880408152C30F00038
:100B4C000130F1000A128A118F240A128A118312C1
:100B5C00031308117608F40003300310F40DFF3E64
:100B6C00031DB32D0310740DF5007508F700F0305C
:100B7C00F4007408F7050F30F40074088805770842
:100B8C00F4007408880408152C30F0000130F100D2
:100B9C000A128A118F240A128A1183120313081164
:100BAC0008002C30F0000130F1000A128A118F2459
:100BBC000A128A1130300A128A117A240A128A1106
:100BCC002C30F0000130F1000A128A118F240A1225
:100BDC008A1130300A128A117A240A128A112C30A6
:100BEC00F0000130F1000A128A118F240A128A11C6
:100BFC0030300A128A117A240A128A112C30F00031
:100C0C000130F1000A128A118F240A128A11203045
:100C1C000A128A117A240A128A112C30F00001303F
:100C2C00F1000A128A118F240A128A110C300A124E
:100C3C008A1188250A128A1128300A128A118825ED
:100C4C000A128A112C30F0000130F1000A128A11BC
:100C5C008F240A128A1104300A128A1188250A126A
:100C6C008A112C30F0000130F1000A128A118F2405
:100C7C000A128A1185300A128A1188250A128A11E1
:100C8C002C30F0000130F1000A128A118F240A1264
:100C9C008A1106300A128A1188250A128A112C3000
:100CAC00F0000130F1000A128A118F240A128A1105
:100CBC0001300A128A1188250A128A112C30F00090
:100CCC000130F1000A128A118F240A128A110800CD
:100CDC00831603138801FF308600831603178901DE
:100CEC0088018B170B168B108316031301130A1232
:100CFC008A11D7250A128A11831203130618872E1C
:100D0C00882E922E3508E4006408F00000300A1298
:100D1C008A11DD240A128A1183120313061A972EE4
:100D2C00982E9F2EF00100300A128A11DD240A122F
:100D3C008A1100300A128A11A5240A128A11831210
:100D4C000313E4006408B6001430E4006408D70010
:100D5C003508E500E6016508D8006608D90047307B
:100D6C000A128A1108270A128A1180300A128A1173
:100D7C0088250A128A1147300A128A11BC240A12D9
:100D8C008A110D3083120313E500FB30E400E40BF1
:100D9C00CD2EE50BCD2E0B3083120313E40064082B
:100DAC00D7003608E500E6016508D8006608D900CA
:100DBC0037300A128A1108270A128A11C0300A1217
:100DCC008A1188250A128A1137300A128A11BC241A
:100DDC000A128A11013083120313E4006408B50768
:100DEC000B3083120313E6002630E5005D30E4007F
:100DFC00E40BFE2EE50BFE2EE60BFE2E822E0A12C7
:100E0C008A11002883120313E2005830DA005A08C2
:100E1C00DD00D92F253063060319152F162F222F2D
:100E2C006308DA00620884005A08831380000130DA
:100E3C00DA005A08E207D92FDE010130D707FF305C
:100E4C00570784000A128A1103200A128A11E30040
:100E5C00DA00DB015B08003A0319352FD92F5A0849
:100E6C00003A0319EB2F643A0319402F0D3A03197A
:100E7C00402FD92F5D08840083130008E000840AFA
:100E8C000008E1000230DA005A08DD07E11F4F2F9D
:100E9C00502F592F0330DA005A08DE04E009E1091B
:100EAC00E00A0319E10AE301E30A6308DA005A07CE
:100EBC00013E84000A128A1103200A128A11DB00F7
:100ECC000A128A1103200A128A11DC005C086102E2
:100EDC00031D722F5B0860020318752F762F772F76
:100EEC00812F0130DA005A08E30705306306031D31
:100EFC00802F812F5B2F5E0803390319862F872FD4
:100F0C00922F2D30DA00620884005A088313800077
:100F1C000130DA005A08E2076308DA005A08DF00E9
:100F2C00D02F0A30F8000030F9005F08DA005A07B9
:100F3C00013E84000A128A1103200A128A11F00061
:100F4C000A128A1103200A128A11F1006108F300B7
:100F5C006008F2000A128A1144250A128A117108DB
:100F6C00FB007008FA000A128A110A250A128A116B
:100F7C007808303E83120313DB005B08E300630840
:100F8C00DA00620884005A08831380000130DA000A
:100F9C005A08E207FF30DA005A08DF075F0A031D20
:100FAC00D82FD92F972F0130D707FF305707840040
:100FBC000A128A1103200A128A11DA005A08E30075
:100FCC006308031DEA2FEB2F102F62088400831394
:100FDC008001080083120313E7018313203084007F
:100FEC0057300A128A1166240A128A1183010A12D6
:040FFC008A116E2EBA
:04400E00F720FF3F59
:00000001FF
