:020000040000FA
:060000000A128A11E22F32
:10001A008834133400340034FD007D08F900F90EE9
:10002A00F90DF90D83120313170879063F3979067A
:10003A0097002608F9000310790CFA00FA0D170840
:10004A007A06FD397A069700260C031C1710031846
:10005A001714971597193228362883120313171580
:10006A003928831203131711831603132A08F90078
:10007A002B08FA002C08FB002D08FC0002300310A4
:10008A00F90DFA0DFB0DFC0DFF3E031D442802304D
:10009A000310F90DFA0DFB0DFC0DFF3E031D4D2853
:1000AA007C08F3007B08F2007A08F1007908F00076
:1000BA000030F7007A30F6001230F5000030F40014
:1000CA000A128A117B200A128A117008FF3E8316CF
:1000DA00031392000330831203139204121583163A
:1000EA0003130711881308138812080083120313D5
:1000FA00A101F31F812882288F28F009F109F2094A
:10010A00F309F00A0319F10A0319F20A0319F30AA7
:10011A00A101A10AF71F92289328A228F409F50938
:10012A00F609F709F40A0319F50A0319F60A031975
:10013A00F70A0130F8007808A1060030A50000305F
:10014A00A4000030A3000030A200730872047104F6
:10015A0070040319B128B228FF28A001A00AC228F6
:10016A000130F8000310F00DF10DF20DF30DF80B4C
:10017A00B7280130F8007808A007F31FC528C62859
:10018A00B5280130F8000310A20DA30DA40DA50D8A
:10019A00F80BC82873087702031DDD287208760257
:1001AA00031DDD2871087502031DDD28700874021D
:1001BA00031CE028E128F0287008F4027108031CE7
:1001CA00710FF5027208031C720FF6027308031C02
:1001DA00730FF702221401300310F30CF20CF10C26
:1001EA00F00CFF3E031DF1280130A002031DFE287A
:1001FA00FF28C62821080319032904290F29A2095F
:10020A00A309A409A509A20A0319A30A0319A40A9E
:10021A000319A50A2508F3002408F2002308F100AF
:10022A002208F000080083120313AA002A080319FF
:10023A001F2920293429A91F2329242934292609D9
:10024A00AC002709AD002809AE002909AF00AC0AA5
:10025A000319AD0A0319AE0A0319AF0A3C29290882
:10026A00AF002808AE002708AD002608AC00290810
:10027A00280427042604031D432944294D29003054
:10028A00A9000030A8000030A7000030A600D3293A
:10029A009630F9007908AB005F290130F900790836
:1002AA00AB0701300310AF0CAE0CAD0CAC0CFF3E2B
:1002BA00031D5729FE302F05031D6429652952297C
:1002CA0081290130F9007908AB070130AC07003009
:1002DA0003180130AD07003003180130AE070030B3
:1002EA0003180130AF0701300310AF0CAE0CAD0C90
:1002FA00AC0CFF3E031D7929FF302F05031D86290B
:10030A008729662993290130AB020130F9000310CD
:10031A00AC0DAD0DAE0DAF0DF90B8C29AE1B9629A8
:10032A0097299D2902302B0203189C299D29882987
:10033A002B18A029A129A929FF30AC05FF30AD054A
:10034A007F30AE05FF30AF050310AB0C2B08F90068
:10035A00FA01FB01FC0118300310F90DFA0DFB0D2F
:10036A00FC0DFF3E031DB1297908AC047A08AD04DF
:10037A007B08AE047C08AF042A080319C529C629DC
:10038A00CB29A91FC929CA29CB29AF172F08A90028
:10039A002E08A8002D08A7002C08A6000800033084
:1003AA00831603132102FF30031920020318DE29E2
:1003BA00DF29A32A200883120313A6008316031336
:1003CA00210883120313A700A801A90100300A1209
:1003DA008A1118210A128A11831203132908B700F5
:1003EA002808B6002708B5002608B4004430B30030
:1003FA007F30B200C030B1000030B0000A128A115A
:10040A00A4220A128A11831203133308D100320874
:10041A00D0003108CF003008CE000030F7007A3023
:10042A00F6001230F5000030F400831603132A0890
:10043A00A2002B08A3002C08A4002D08A500023056
:10044A000310A20DA30DA40DA50DFF3E031D252A21
:10045A002508F3002408F2002308F1002208F0001E
:10046A000A128A117B200A128A1173088312031353
:10047A00A9007208A8007108A7007008A600013038
:10048A000A128A1118210A128A11831203132908DF
:10049A00CD002808CC002708CB002608CA000A127B
:1004AA008A1181240A128A11831203134D08E70064
:1004BA004C08E6004B08E5004A08E4000A128A15CF
:1004CA0084270A128A1183120313650883160313F9
:1004DA00A10083120313640883160313A0002108E2
:1004EA00A3002008A2000310A30CA20C2208A40057
:1004FA00A40EA40D831203131708831603132406EC
:10050A00DF39240683120313970083160313200C82
:10051A0083120313031C17120318171683160313E7
:10052A002108A3002008A2000310A30CA20C0310A8
:10053A00A30CA20C2208831203139500080083124D
:10054A00031337088039B8003808C1003708B800E3
:10055A003807B9003908C800B61FB42AB52AB62A1E
:10056A00481448080319BA2ABB2ACB2A480A031D89
:10057A00BF2AC02AC82A0030B7000030B6000030AF
:10058A00B5000030B400B617B701D32A0030B7005F
:10059A000030B6000030B5000030B40033088039AE
:1005AA00B8003808C1063308B8003807B900390856
:1005BA00C900B21FE12AE22AE32A491449080319A9
:1005CA00E72AE82AF82A490A031DEC2AED2AF52A1D
:1005DA000030B3000030B2000030B1000030B0008B
:1005EA00B217B301002B0030B3000030B200003064
:1005FA00B1000030B0003308320431043004031D66
:10060A00072B082B212B0030B7000030B600003032
:10061A00B5000030B4008030B6047F30B70441081A
:10062A00B8003808B7043708B3003608B2003508EE
:10063A00B1003408B000802C4808031D252B262B56
:10064A002F2B0030B3000030B2000030B100003070
:10065A00B000802C4808B800B9013908BB00490825
:10066A003802BA00031CBB033A087F3EC2003B08AB
:10067A000318013E003EC3003708C0003608BF0019
:10068A003508BE003408BD000030B7000030B6009F
:10069A000030B5000030B4000030C7000030C6009A
:1006AA000030C5000030C400C901A52B4908031950
:1006BA005F2B602B802B0130B8000310BD0DBE0DDF
:1006CA00BF0DC00DB80B622B0130B8000310B40D7A
:1006DA00B50DB60DB70DB80B6B2BC71F752B762B47
:1006EA00772B34140130B8000310C40DC50DC60DA4
:1006FA00C70DB80B792B33084002031D8E2B320825
:10070A003F02031D8E2B31083E02031D8E2B30083B
:10071A003D02031C912B922BA12B47173008BD02D7
:10072A003108031C310FBE023208031C320FBF020C
:10073A003308031C330FC0020130B8003808C90758
:10074A001A304902031CAA2BAB2B5B2B40083F042F
:10075A003E043D040319B22BB32BD22B4414D22BE3
:10076A000130B8000310B40DB50DB60DB70DB80BB6
:10077A00B72BC71FC12BC22BC32B34140130B800AF
:10078A000310C40DC50DC60DC70DB80BC52BFF3020
:10079A00C2070318C30AFF30C307B61FD52BD62BCF
:1007AA00B52BC901C71FDA2BDB2BF72BFF3044050A
:1007BA00B800FF304505B900FF304605BA007F3062
:1007CA004705BB003B083A04390438040319EE2BE9
:1007DA00EF2BF22BC901C90AF72B341CF52BF62B88
:1007EA00F72BEF2B49080319FB2BFC2B2D2C01307F
:1007FA00B407003003180130B50700300318013080
:10080A00B607003003180130B707371C0D2C0E2C21
:10081A002D2C3408B8003508B9003608BA00370854
:10082A00BB000130BC003B0DBB0CBA0CB90CB80CB8
:10083A00BC0B182C3B08B7003A08B6003908B500BB
:10084A003808B4000130C2070318C30A0030C307CE
:10085A004308803AFF0080307F02031D362CFF30A8
:10086A004202031C392C3A2C482CFF308312031302
:10087A00C2000030C3000030B7000030B6000030BC
:10088A00B5000030B400831203134308803AFF0016
:10089A0080307F02031D532C013042020318562C6C
:1008AA00572C642C83120313C201C3010030B70012
:1008BA000030B6000030B5000030B400C101831228
:1008CA0003134208B8003808C800481C6D2C6E2C67
:1008DA00702CB617742C7F30B8003808B605480853
:1008EA00B8000310380CB9003908B7004108B8003D
:1008FA003808B704182B0800831203134D088039EF
:10090A00D2005208D7004D08D2005207D30053082C
:10091A00DD00CC1F912C922C932C5D145D080319D9
:10092A00972C982CA72C5D0A031D9C2C9D2CA52C7A
:10093A000030CD000030CC000030CB000030CA00BF
:10094A00CC17AF2C0030CD000030CC000030CB00EB
:10095A000030CA0051088039D2005208D70651081F
:10096A00D2005207D3005308DC00D01FBD2CBE2C86
:10097A00BF2C5C145C080319C32CC42CD32C5C0A4E
:10098A00031DC82CC92CD12C0030D1000030D00056
:10099A000030CF000030CE00D017DB2C0030D10061
:1009AA000030D0000030CF000030CE005C080319C0
:1009BA00DF2CE02CE52C5D08031DE42CE52CEE2C45
:1009CA000030CD000030CC000030CB000030CA002F
:1009DA00E12F4A08D2005208F00050080A128A157C
:1009EA00B2260A128A11710883120313E3007008EF
:1009FA00E2006208D200D301D401D5015508DB0018
:100A0A005408DA005308D9005208D8006308D20003
:100A1A00D301D401D5015508E1005408E000530878
:100A2A00DF005208DE004B08D2005208F0004F08DF
:100A3A000A128A15B2260A128A117108831203133E
:100A4A00E3007008E2006208D200D301D401D501A4
:100A5A005208D807530803110318013E0319362D0B
:100A6A00D907540803110318013E03193D2DDA076B
:100A7A00550803110318013E0319442DDB076308C7
:100A8A00D200D301D401D5015208DE07530803115D
:100A9A000318013E0319522DDF07540803110318E6
:100AAA00013E0319592DE007550803110318013EA9
:100ABA000319602DE1074C08D2005208F0004E08D5
:100ACA000A128A15B2260A128A11710883120313AE
:100ADA00E3007008E2006208D200D301D401D50114
:100AEA005208D807530803110318013E03197E2D33
:100AFA00D907540803110318013E0319852DDA0793
:100B0A00550803110318013E03198C2DDB076308EE
:100B1A00D200D301D401D5015208DE0753080311CC
:100B2A000318013E03199A2DDF075408031103180D
:100B3A00013E0319A12DE007550803110318013ED0
:100B4A000319A82DE1070830D2000310D80DD90DDA
:100B5A00DA0DDB0DD20BAA2D4B08D2005208F00099
:100B6A004E080A128A15B2260A128A1171088312CD
:100B7A000313E3007008E2006208D2006308D3009E
:100B8A00D401D5015208D807530803110318013EAE
:100B9A000319D02DD907540803110318013E03196C
:100BAA00D72DDA07550803110318013E0319DE2D64
:100BBA00DB074A08D2005208F0004F080A128A15C9
:100BCA00B2260A128A11710883120313E30070080D
:100BDA00E2006208D2006308D300D401D5015208AA
:100BEA00D807530803110318013E0319FD2DD9072D
:100BFA00540803110318013E0319042EDA07550895
:100C0A0003110318013E03190B2EDB070830D2002B
:100C1A000310D80DD90DDA0DDB0DD20B0D2E4A08B3
:100C2A00D2005208F0004E080A128A15B2260A1299
:100C3A008A11710883120313E3007008E200620844
:100C4A00D2006308D300D401D5015208D80753084B
:100C5A0003110318013E0319332ED907540803114F
:100C6A000318013E03193A2EDA075508031103182F
:100C7A00013E0319412EDB074B08D2005208F0004F
:100C8A0050080A128A15B2260A128A1171088312AA
:100C9A000313E3007008E2006208D2006308D3007D
:100CAA00D401D5015208DE07530803110318013E87
:100CBA000319602EDF07540803110318013E0319B4
:100CCA00672EE007550803110318013E03196E2E1B
:100CDA00E1074C08D2005208F0004F080A128A15A0
:100CEA00B2260A128A11710883120313E3007008EC
:100CFA00E2006208D2006308D300D401D501520889
:100D0A00DE07530803110318013E03198D2EDF076E
:100D1A00540803110318013E0319942EE0075508DD
:100D2A0003110318013E03199B2EE1074C08D20058
:100D3A005208F00050080A128A15B2260A128A11BD
:100D4A00710883120313E3007008E2006208D200FC
:100D5A006308D300D401D50108300310D20DD30D96
:100D6A00D40DD50DFF3E031DB22E5208DE075308DF
:100D7A0003110318013E0319C32EDF075408031198
:100D8A000318013E0319CA2EE00755080311031878
:100D9A00013E0319D12EE1075808D2005908D300A1
:100DAA005A08D4005B08D50018300310D50CD40CAF
:100DBA00D30CD20CFF3E031DDA2E5208DE0753086D
:100DCA0003110318013E0319EB2EDF075408031120
:100DDA000318013E0319F22EE00755080311031800
:100DEA00013E0319F92EE1070830D2000310D80D8D
:100DFA00D90DDA0DDB0DD20BFB2E5D085C07D20094
:100E0A00D301D30D5208823EE20053080318013E73
:100E1A00FF3EE3002D2F0130D2000310DE0DDF0D5F
:100E2A00E00DE10DD20B122FDB1F1C2F1D2F1E2FE1
:100E3A005E140130D2000310D80DD90DDA0DDB0D86
:100E4A00D20B202FFF30E2070318E30AFF30E30733
:100E5A00E01F302F312F102FDC01DB1F352F362FEB
:100E6A00522FFF305805D200FF305905D300FF300A
:100E7A005A05D4007F305B05D50055085404530445
:100E8A0052040319492F4A2F4D2FDC01DC0A522F35
:100E9A005E1C502F512F522F4A2F5C080319562FD0
:100EAA00572F882F0130DE07003003180130DF0783
:100EBA00003003180130E007003003180130E10761
:100ECA00611C682F692F882F5E08D2005F08D30043
:100EDA006008D4006108D5000130D600550DD50C44
:100EEA00D40CD30CD20CD60B732F5508E10054083E
:100EFA00E0005308DF005208DE000130E207031861
:100F0A00E30A0030E3076308803AFF0080307F027B
:100F1A00031D912FFF306202031C942F952FA02FDF
:100F2A007F3083120313E1008030E0000030DF00DD
:100F3A000030DE00D52F831203136308803AFF00C6
:100F4A0080307F02031DAB2F013062020318AE2FDF
:100F5A00AF2FBB2F003083120313E1000030E000F3
:100F6A000030DF000030DE00D701D52F83120313D3
:100F7A006208D2005208DD00FF30DE05FF30DF05CF
:100F8A007F30E0050030E1055D1CCC2FCD2FCE2F40
:100F9A00E0175D08D2000310520CD3005308E10099
:100FAA005708D2005208E1046108CD006008CC005D
:100FBA005F08CB005E08CA000800831603130A12F2
:100FCA008A110D200A128A11AA000A128A110E2009
:100FDA000A128A11AB000A128A110F200A128A1108
:100FEA00AC000A128A1110200A128A11AD0083017C
:060FFA000A128A15D92E2F
:101D1E00F300831203131F147308F100F10EF10D7B
:101D2E00F10D1F0871063F3971069F007008F10012
:101D3E000310710CF200F20EF20D831603131F083E
:101D4E007206DF3972069F00700C031C1F120318F7
:101D5E001F169F170800F800F401F5017008F20035
:101D6E00F3017208F6007308F700781CBF2EC02E20
:101D7E00C62E7608F4070318F50A7708F507013022
:101D8E000310F60DF70DFF3E031DC72E0310F80CC2
:101D9E007808031DD32ED42EBC2E7508F1007408BE
:101DAE00F00008008316031305140330A60026085E
:101DBE00F00001300A128A158F260A128A15033096
:101DCE0083160313A600260883120313A600013000
:101DDE000A128A1111200A128A1500300A128A1567
:101DEE002C270A128A15831203133308E7003208D0
:101DFE00E6003108E5003008E4000A128A1584274F
:101E0E000A128A1583120313650883160313A90099
:101E1E0083120313640883160313A8002908A10074
:101E2E002808A0000A128A11D4210A128A158230BB
:101E3E0083160313A700DD30A600A60B242FA70BD5
:101E4E00242FF42E0A128A110028FD000E307D0276
:101E5E000318322F332F342F3F2F003083120313EA
:101E6E00B3000030B2000030B1000030B000832F5C
:101E7E007D0883120313B400B40DB40D1F0834068D
:101E8E00C33934069F00063083120313B5002F307A
:101E9E00B400B40B502FB50B502F552F83120313D4
:101EAE009F149F185B2F5C2F582F1E08B400B5018E
:101EBE003408B500B401831603131E0883120313EE
:101ECE003407A6000030031801303507A700A8011B
:101EDE00A71BA8032808A90001300A128A1118218D
:101EEE000A128A15831203132908B3002808B200B8
:101EFE002708B1002608B000080003108312031350
:101F0E00660D670DE8006808EE006E08031D902F41
:101F1E00912F9A2F0030E7000030E6000030E500E8
:101F2E000030E400FF2F6408E8006508E900660849
:101F3E00EA006708EB001F300310EB0CEA0CE90C0B
:101F4E00E80CFF3E031DA32F6808EC006C08ED00A3
:101F5E00E617FF30E405FF30E505FF30E6050030FB
:101F6E00E7059630EE02EE1FBD2FBE2FD82F6E085E
:101F7E00803A973E0318C42FC52FC62F912F0130DC
:101F8E000310E70CE60CE50CE40CFF3E031DC72F17
:101F9E000130E8006808EE07031DD62FD72FC62F95
:101FAE00EF2F20306E02031CDD2FDE2FEA2F912F34
:101FBE000130E8000310E40DE50DE60DE70DE80B2A
:101FCE00E12F0130EE026E08031DEE2FEF2FDF2FF3
:101FDE006D080319F32FF42FFF2FE409E509E60925
:101FEE00E709E40A0319E50A0319E60A0319E70AE1
:021FFE000800D9
:04400E000020FF3857
:00000001FF
