:020000040000FA
:100000000A128A11E82FFF1B0D2883137F1883170C
:100010000008840A0319FF0A080000308A00040857
:10002000840A82070034013400340A340034643412
:100030000034E8340334103427342034203420349E
:100040002034203420342034203420342034203410
:100050002034203420342034203400347734693480
:1000600074346834203450344934433431343634B1
:100070004634383437343734413400344334683408
:10008000653463346B342034733475346D34203408
:100090006534723472346F347234003448347534D9
:1000A0006D34693464343A342034253464342E3465
:1000B00025346434203425340034503472346F34A1
:1000C0006A34653463347434203463346C3461349A
:1000D000733473340034543465346D3470343A34CA
:1000E0002034253464342E342534643420340034F0
:1000F0004E346F34203452346534733470346F347A
:100100006E34733465342E340034443448345434FB
:10011000313431342034733465346E3473346F3495
:1001200072340034483475346D346934643469345D
:10013000743479343A3420340034443465347634B9
:1001400069346F3474342E3476346E34003445346C
:10015000723472346F3472342134213421340034D7
:10016000543465346D3470343A34203400342534DA
:0E0170002034203400340A3400344334003488
:100188008316031386010A128A11EE230A128A11B2
:100198000A128A117C230A128A1108008316031393
:1001A80088128312031388127530F100E130F000D1
:1001B800F00BDC28F10BDC2883120313881631308E
:1001C800F000F00BE528E8288316031388160800CA
:1001D80083120313BE014230F000F00BF128000037
:1001E80083120313881AF928FA280A298530F0009F
:1001F800F00BFC2883120313881E032904290629FF
:10020800BE01BE0A5330F000F00B08290800F400C4
:10021800F501F60123290A128A15AE270A128A1156
:10022800F20075087407F3007308840072088313DA
:1002380080000130F5070318F60A0030F607710848
:100248007602031D292970087502031C2C292D2903
:100258000F290800FB00F901FA01452979087B07F5
:1002680084000A128A110D200A128A110A128A15AC
:10027800A2270A128A110130F9070318FA0A003076
:10028800FA0779087B0784000A128A110D200A12DE
:100298008A11003A031D5129522932290800682978
:1002A8007208FF00710884000A128A1103200A12DA
:1002B8008A110A128A1598270A128A110130F10741
:1002C8000318F20A0030F207720883120313FF00C2
:1002D800710884000A128A1103200A128A11003A4E
:1002E800031D772978295429080083160313071357
:1002F8008717831203135C08F3005B08F2005A089F
:10030800F1005908F0000030F7001330F600123001
:10031800F500D030F4000A128A1185240A128A11D5
:100328007008FF3E831603139900181518128312DC
:1003380003139817831603139816831203131816BA
:10034800831603131813831203131813080078086D
:1003580079040319B029B129E029FD01FD0ABF2953
:1003680001300310F80DF90DFF3E031DB5290130CA
:10037800FC007C08FD07F91FC229C329B4297908A4
:100388007B02031DC92978087A02031CCC29CD29D0
:10039800D3297808FA027908031CFB03FB02013011
:1003A8000310F90CF80CFF3E031DD4290130FD029F
:1003B800031DDF29E029C3297B08F9007A08F80022
:1003C8000800F30183120313881EEB29EC29E629A0
:1003D8003130F000F00BEE29F12983120313881A4B
:1003E800F629F729082A0130F0007308073C013E76
:1003F800FF290310F00DFF3E031DFD297008FF3A89
:10040800F1007108F2051B2A0130F0007308073C5F
:10041800013E102A0310F00DFF3E031D0E2A70083E
:10042800F1007108F204881A1A2A1B2A172A0130C7
:10043800F0007008F30708307302031C242A252AE9
:10044800E62972080800F501F6017008710403191D
:100458002E2A2F2A662AF701F70A3D2A01300310AF
:10046800F00DF10DFF3E031D332A0130F40074082E
:10047800F707F11F402A412A322A01300310F50DEF
:10048800F60DFF3E031D422A71087302031D4E2A12
:1004980070087202031C512A522A592A7008F20263
:1004A8007108031CF303F302751401300310F10CF7
:1004B800F00CFF3E031D5A2A0130F702031D652A7E
:1004C800662A412A7608F1007508F0000800F6004F
:1004D800831203136C1C712A722A742A6C10752AF1
:1004E800061086107608F4007408F700F030F4005F
:1004F8007408F7050F30F400740886057708F400CF
:100508007408860406152C30F0000130F1000A1238
:100518008A15D1270A128A11831203130611760845
:10052800F40003300310F40DFF3E031D962A031058
:10053800740DF5007508F700F030F4007408F7053D
:100548000F30F400740886057708F40074088604F0
:1005580006152C30F0000130F1000A128A15D12757
:100568000A128A1183120313061108008312031357
:10057800D401FC1FC02AC12AC82AFB09FC09FB0AAE
:100588000319FC0AD401D40AFA1FCB2ACC2AD12A8F
:10059800F909FA09F90A0319FA0A79087A04031910
:1005A800D62AD72A062BD301D30AE52A013003100D
:1005B800F90DFA0DFF3E031DDB2A0130FD007D0811
:1005C800D307FA1FE82AE92ADA2A7A087C02031DE7
:1005D800EF2A79087B02031CF22AF32AF92A790800
:1005E800FB027A08031CFC03FC0201300310FA0C1E
:1005F800F90CFF3E031DFA2A0130D302031D052B17
:10060800062BE92A540803190A2B0B2B102BFB097C
:10061800FC09FB0A0319FC0A7C08FA007B08F900AC
:100628000800F601F11F192B1A2B212BF009F109EB
:10063800F00A0319F10AF601F60AF31F242B252BF9
:100648002E2BF209F309F20A0319F30A0130F40018
:100658007408F606F701F801700871040319352BC0
:10066800362B6D2BF501F50A442B01300310F00DE4
:10067800F10DFF3E031D3A2B0130F4007408F50715
:10068800F11F472B482B392B01300310F70DF80DBC
:10069800FF3E031D492B71087302031D552B70087B
:1006A8007202031C582B592B602B7008F202710838
:1006B800031CF303F302771401300310F10CF00C60
:1006C800FF3E031D612B0130F502031D6C2B6D2BC2
:1006D800482B76080319712B722B772BF709F80929
:1006E800F70A0319F80A7808F1007708F0000800FB
:1006F80080300A128A116B220A128A118B300A1270
:100708008A112E210A128A11C0300A128A116B220C
:100718000A128A114B300A128A112E210A128A11E2
:100728001A3083120313D5005E30D4006D30D30025
:10073800D30B9C2BD40B9C2BD50B9C2BA32B1A30A7
:1007480083120313D5005E30D4006D30D300D30B71
:10075800AB2BD40BAB2BD50BAB2BB22B0A128A15B8
:10076800E7270A128A1180300A128A116B220A12AC
:100778008A1173300A128A112E210A128A11C03086
:100788000A128A116B220A128A111C300A128A1163
:100798002E210A128A111A3083120313D5005E30F3
:1007A800D4006D30D300D30BD72BD40BD72BD50B5C
:1007B800D72BDE2B1A3083120313D5005E30D400FA
:1007C8006D30D300D30BE62BD40BE62BD50BE62BE1
:1007D800ED2B08002C30F0000130F1000A128A15C8
:1007E800D1270A128A1130300A128A15BC270A1238
:1007F8008A112C30F0000130F1000A128A15D12735
:100808000A128A1130300A128A15BC270A128A1174
:100818002C30F0000130F1000A128A15D1270A1293
:100828008A1130300A128A15BC270A128A112C3014
:10083800F0000130F1000A128A15D1270A128A1134
:1008480020300A128A15BC270A128A112C30F000AF
:100858000130F1000A128A15D1270A128A110C30C8
:100868000A128A116B220A128A1128300A128A1176
:100878006B220A128A112C30F0000130F1000A12A2
:100888008A15D1270A128A1104300A128A116B229A
:100898000A128A112C30F0000130F1000A128A1570
:1008A800D1270A128A1185300A128A116B220A127C
:1008B8008A112C30F0000130F1000A128A15D12774
:1008C8000A128A1106300A128A116B220A128A1138
:1008D8002C30F0000130F1000A128A15D1270A12D3
:1008E8008A1101300A128A116B220A128A112C30DD
:1008F800F0000130F1000A128A15D1270A128A1174
:10090800080083120313D401F31F8B2C8C2C992C11
:10091800F009F109F209F309F00A0319F10A0319B8
:10092800F20A0319F30AD401D40AF71F9C2C9D2C50
:10093800AC2CF409F509F609F709F40A0319F50AC4
:100948000319F60A0319F70A0130F8007808D406E3
:100958000030D8000030D7000030D6000030D50075
:1009680073087204710470040319BB2CBC2C092D84
:10097800D301D30ACC2C0130F8000310F00DF10D8F
:10098800F20DF30DF80BC12C0130F8007808D307ED
:10099800F31FCF2CD02CBF2C0130F8000310D50D3D
:1009A800D60DD70DD80DF80BD22C73087702031D7E
:1009B800E72C72087602031DE72C71087502031DE7
:1009C800E72C70087402031CEA2CEB2CFA2C700834
:1009D800F4027108031C710FF5027208031C720FF0
:1009E800F6027308031C730FF70255140130031045
:1009F800F30CF20CF10CF00CFF3E031DFB2C013044
:100A0800D302031D082D092DD02C540803190D2DD0
:100A18000E2D192DD509D609D709D809D50A0319D4
:100A2800D60A0319D70A0319D80A5808F300570831
:100A3800F2005608F1005508F0000800831203136D
:100A4800E0005430D8005808DB00F32D253061064B
:100A580003192F2D302D3C2D6108D8006008840023
:100A68005808831380000130D8005808E007F32D98
:100A7800DC010130D307FF30530784000A128A11C2
:100A88000D200A128A11E100D800D9015908003A4C
:100A980003194F2DF32D5808003A0319052E643A0F
:100AA80003195A2D0D3A03195A2DF32D5B088400AA
:100AB80083130008DE00840A0008DF000230D80033
:100AC8005808DB07DF1F692D6A2D732D0330D80006
:100AD8005808DC04DE09DF09DE0A0319DF0AE10130
:100AE800E10A6108D8005807013E84000A128A11F9
:100AF8000D200A128A11D9000A128A110D200A1231
:100B08008A11DA005A085F02031D8C2D59085E020B
:100B180003188F2D902D912D9B2D0130D80058084A
:100B2800E10705306106031D9A2D9B2D752D5C0884
:100B380003390319A02DA12DAC2D2D30D800600844
:100B480084005808831380000130D8005808E00753
:100B58006108D8005808DD00EA2D0A30F800003096
:100B6800F9005D08D8005807013E84000A128A116E
:100B78000D200A128A11F0000A128A110D200A1299
:100B88008A11F1005F08F3005E08F2000A128A1168
:100B980027220A128A117108FB007008FA000A124B
:100BA8008A11AB210A128A117808303E8312031386
:100BB800D9005908E1006108D80060088400580885
:100BC800831380000130D8005808E007FF30D800B0
:100BD8005808DD075D0A031DF22DF32DB12D0130F4
:100BE800D307FF30530784000A128A110D200A1216
:100BF8008A11D8005808E1006108031D042E052E4B
:100C08002A2D600884008313800108000A128A11C3
:100C1800C4200A128A11003083120313DC0000304A
:100C2800DB002530DA008030D9000A128A117921D8
:100C38000A128A11153083120313E4004B30E300C3
:100C4800BD30E200E20B262EE30B262EE40B262E07
:100C58002D2E0A128A11D2200A128A110A128A111A
:100C6800EC200A128A11831203133E03031D3D2E42
:100C78003E2EB82F0A128A11E5210A128A11831210
:100C88000313E2006208BB000A128A11E5210A1266
:100C98008A1183120313E2006208BA000A128A1149
:100CA800E5210A128A1183120313E2006208BD00CB
:100CB8000A128A11E5210A128A1183120313E2002B
:100CC8006208BC000A128A11E5210A128A118312ED
:100CD8000313E2006208B7003B083A07E200E301A9
:100CE800E30D3D086207E400003003180130630794
:100CF800E5003C086407E60000300318013065078A
:100D0800E700FF306605E80000306705E9003708AE
:100D1800EA00EB0169086B06031D942E68086A0651
:100D2800031D972E982EA02F3D08E2006208B900F7
:100D38003B08E2006208B80080300A128A116B2270
:100D48000A128A119E300A128A112E210A128A1159
:100D58000A30F9000030FA000A30F0000030F100E3
:100D6800831203133908E200E3016208F200630802
:100D7800F3000A128A1115230A128A117108FC005D
:100D88007008FB000A128A11BA220A128A1179081D
:100D9800303E0A128A15A2270A128A110A30F9006F
:100DA8000030FA00831203133908E200E3016208F5
:100DB800FB006308FC000A128A11BA220A128A117F
:100DC8007908303E0A128A15A2270A128A11DF30E2
:100DD8000A128A15A2270A128A11AB300A128A113E
:100DE8002E210A128A11C0300A128A116B220A12A5
:100DF8008A1180300A128A112E210A128A110A30A9
:100E0800F9000030FA000A30F0000030F1008312D7
:100E180003133808E200E3016208F2006308F300F4
:100E28000A128A1115230A128A117108FC00700827
:100E3800FB000A128A11BA220A128A117908303E76
:100E48000A128A15A2270A128A110A30F9000030FC
:100E5800FA00831203133808E200E3016208FB007A
:100E68006308FC000A128A11BA220A128A11790848
:100E7800303E0A128A15A2270A128A11A5300A12D0
:100E88008A112E210A128A11593083120313E200A3
:100E98006208D3003D08E300E4016308D400640855
:100EA800D5003C08E500E6016508D6006608D700CD
:100EB8003F300A128A1122250A128A113F30F100A6
:100EC8000030F2000A128A1153210A128A11A9303D
:100ED800F1008030F2000A128A1153210A128A1195
:100EE8003C3083120313E2006208D3003B08E3009E
:100EF800E4016308D4006408D5003A08E500E60177
:100F08006508D6006608D7003F300A128A112225E4
:100F18000A128A113F30F1000030F2000A128A11D9
:100F280053210A128A11A930F1008030F2000A1206
:100F38008A1153210A128A11831203138C1EA52FBA
:100F4800A62FB12F1430F0000030F100A0300A12A3
:100F58008A110B210A128A11D52F2C300A128A11F4
:100F68002E210A128A11D52F0A128A15E7270A128A
:100F78008A1180300A128A116B220A128A1195305E
:100F88000A128A112E210A128A11C0300A128A11F5
:100F98006B220A128A1166300A128A112E210A124D
:100FA8008A111A3083120313E4005E30E3006D30B7
:100FB800E200E20BDD2FE30BDD2FE40BDD2FE42F46
:100FC8001E2E0A128A11002883120313EC018313C0
:100FD8002030840053300A128A1590270A128A1189
:100FE800A0308400B4300A128A1590270A128A1198
:080FF80083010A128A110A2E7E
:101F200064008001840A0406031900340406912F1A
:101F3000F000831203130C1E9E2F9F2F992F700801
:101F400099000800F800831203136C140614780833
:101F50000A128A116B220A128A15080083120313CF
:101F6000981CB32FB42FB62F181218168C1EB92F29
:101F7000BA2FB62F1A080800F400831203130610B4
:101F800086107408860006152C30F0000130F10030
:101F90000A128A15D1270A128A1583120313061111
:101FA0000800F201F301F201F301DC2F0130F20726
:101FB0000318F30A0030F30771087302031DE22FC0
:101FC00070087202031CE52FE62FD62F0800803020
:101FD0000A128A116B220A128A150B300A128A1110
:101FE0002E210A128A15C0300A128A116B220A1297
:101FF0008A150B300A128A112E210A128A1508003E
:02400E00723FFF
:00000001FF
