:020000040000FA
:100000000A128A11E72F83120313A101F81F09288E
:100010000A281128F709F809F70A0319F80AA101B3
:10002000A10AFA1F142815281E28F909FA09F90A45
:100030000319FA0A0130FB007B08A106A201A30103
:10004000770878040319252826285D28A001A00A2E
:10005000342801300310F70DF80DFF3E031D2A2848
:100060000130FB007B08A007F81F37283828292813
:1000700001300310A20DA30DFF3E031D392878089F
:100080007A02031D452877087902031C482849286D
:1000900050287708F9027808031CFA03FA022214A0
:1000A00001300310F80CF70CFF3E031D51280130FE
:1000B000A002031D5C285D28382821080319612847
:1000C00062286728A209A309A20A0319A30A230820
:1000D000F8002208F700080083160313C100A130BE
:1000E000A5002508AE00D02F253044060319792835
:1000F0007A2886284408A50041088400250883172B
:1001000080000130A5002508C107D02FB501B60138
:10011000B301B401200884000A168A1500200A12CF
:100120008A110A168A1101200A128A11031C9928C1
:100130009A28DA2883160313B501B6010A30F000B5
:100140000030F100831603133608F3003508F2007F
:100150000A168A1573230A128A117108831603136B
:10016000B6007008B500200884000A168A15002021
:100170000A128A11D03EA500FF3003180030A600F5
:100180002508B5070318B60A2608B6070130A500EA
:100190002508A007200884000A168A1500200A12E4
:1001A0008A110A168A1101200A128A110318D92805
:1001B000DA289E2883160313200884000A168A155D
:1001C00000200A128A112E3A031DE728E8282D295B
:1001D00034170130A5002508A007C201C3011C295E
:1001E0000A30F0000030F100831603134308F300D7
:1001F0004208F2000A168A1573230A128A1171083E
:1002000083160313C3007008C200200884000A1676
:100210008A1500200A128A11D03EA500FF3003186B
:100220000030A6002508C2070318C30A2608C30722
:100230000130A5002508A007200884000A168A15A9
:1002400000200A128A110A168A1101200A128A1144
:1002500003182B292C29F0283329C201C301341695
:10026000332934154F29013083160313A007FF30BB
:10027000200784000A168A1500200A128A11C40079
:10028000A500A6012608003A03194729D02F250802
:10029000003A0319E22F663A03193129D02F0030B2
:1002A0003305A50007303405A600250826040319E8
:1002B0005A295B290D2F341E5E295F2963290630D8
:1002C000C2000030C3002E08840083130008BD0064
:1002D000840A0008BE00840A0008BF00840A0008DF
:1002E000C0000430A5002508AE074008F3003F0811
:1002F000F2003E08F1003D08F0000030F700003049
:10030000F6000030F5000030F4000A168A155E276A
:100310000A128A1103188D298E29AB29831603131B
:100320004008F3003F08F2003E08F1003D08F000ED
:100330000A168A15C7220A128A1173088316031334
:10034000C0007208BF007108BE007008BD00033015
:10035000B3040030B40483160313BB01BC0140088E
:10036000F3003F08F2003E08F1003D08F0000030C5
:10037000F7000030F6000030F5000030F4000A16F7
:100380008A153D240A128A110318C729C829B82AD8
:100390000310831603133F0D400D823EBB00FF3058
:1003A00003180030BC00FF30BB070318BC0AFF3045
:1003B000BC070330F0000030F1003C08F3003B08BC
:1003C000F2000A168A1573230A128A11710883161D
:1003D0000313BC007008BB000A30F7000030F800BF
:1003E0003C08FA003B08F9000A128A1103200A129D
:1003F0008A11780883160313BC007708BB00BC1F62
:10040000022A032A092AFF30BB070318BC0AFF305F
:10041000BC073B03FF3A0A128A1540210A128A11CF
:1004200083120313410883160313BA0083120313C4
:10043000400883160313B900831203133F08831681
:100440000313B800831203133E0883160313B70087
:10045000400883120313A700831603133F08831277
:100460000313A600831603133E0883120313A5008B
:10047000831603133D0883120313A400831603138A
:100480003A0883120313AB0083160313390883124F
:100490000313AA0083160313380883120313A90059
:1004A00083160313370883120313A8000A128A1550
:1004B0009F240A128A118312031327088316031339
:1004C000BA0083120313260883160313B90083129C
:1004D0000313250883160313B8008312031324089B
:1004E00083160313B7003A08F3003908F2003808FE
:1004F000F1003708F0003F30F7008030F6000030A0
:10050000F5000030F4000A168A155E270A128A11D7
:1005100003188B2A8C2A952AFF3083160313BB07F6
:100520000318BC0AFF30BC07B82A831603133A0825
:10053000F3003908F2003808F1003708F0004130C4
:10054000F7002030F6000030F5000030F4000A1605
:100550008A155E270A128A11031CAF2AB02AB82A0C
:10056000013083160313BB070318BC0A0030BC0715
:10057000831603134308803AFF0080307F02031D77
:10058000C32A0D3042020318C62AC72A0E2B83162F
:10059000031342080A168A116D230A128A11831264
:1005A00003134108D5004008D4003F08D3003E089B
:1005B000D20083160313400883120313D900831655
:1005C00003133F0883120313D800831603133E0856
:1005D00083120313D700831603133D0883120313FA
:1005E000D6000A168A1178250A128A11831203137B
:1005F000550883160313C00083120313540883168F
:100600000313BF0083120313530883160313BE00A2
:1006100083120313520883160313BD0083160313BA
:100620003C08803AFF0080307F02031D192B0A30FE
:100630003B0203181C2B1D2B6E2B83160313400843
:10064000F3003F08F2003E08F1003D08F0000030E2
:10065000F7000030F6000030F5000030F4000A1614
:100660008A153D240A128A110318372B382BE02BE8
:1006700083160313400883120313C1008316031368
:100680003F0883120313C000831603133E0883122E
:100690000313BF00831603133D0883120313BE0028
:1006A0000A128A1506200A128A11831203134108BE
:1006B00040043F043E04031D5E2B5F2BE02B83169A
:1006C00003133C08803AFF0080307F02031D6A2B31
:1006D00002303B02031C6D2B6E2BE02B83160313A1
:1006E0003A08F3003908F2003808F1003708F00042
:1006F0004030F7008930F6007030F5005F30F400CC
:100700000A168A155E270A128A110318882B892B6C
:10071000922BF73083160313BB070318BC0AFF3074
:10072000BC079A2BF83083160313BB070318BC0AC7
:10073000FF30BC073B080A128A1540210A128A11B1
:1007400083120313410883160313BA0083120313A1
:10075000400883160313B900831203133F0883165E
:100760000313B800831203133E0883160313B70064
:100770004008F3003F08F2003E08F1003D08F00099
:100780003A08F7003908F6003808F5003708F40091
:100790000A128A1582200A128A117308831603131B
:1007A000B2007208B1007108B0007008AF000030EC
:1007B000C0000030BF000030BE000030BD00642C1F
:1007C00083160313400883120313C1008316031317
:1007D0003F0883120313C000831603133E088312DD
:1007E0000313BF00831603133D0883120313BE00D7
:1007F0000A128A1506200A128A118312031341086D
:1008000083160313B20083120313400883160313E5
:10081000B100831203133F0883160313B000831241
:1008200003133E0883160313AF003208F3003108A8
:10083000F2003008F1002F08F00000300A168A118B
:1008400013200A128A11730883120313E900720835
:10085000E8007108E7007008E600831603134008FB
:1008600083120313ED00831603133F08831203134F
:10087000EC00831603133E0883120313EB00831668
:1008800003133D0883120313EA000A168A154F2347
:100890000A128A1183120313690883160313C00016
:1008A00083120313680883160313BF008312031314
:1008B000670883160313BE008312031366088316AA
:1008C0000313BD00BB01BC01C401C40A4408A50058
:1008D00001300310A50DFF3E031D692C0310250DEB
:1008E000693E84000A168A1500200A128A11A600A1
:1008F0000A168A1500200A128A11A7000A168A15FC
:1009000000200A128A11A8000A168A1500200A126D
:100910008A11A90029083202031D982C28083102E7
:10092000031D982C27083002031D982C26082F023F
:1009300003189B2C9C2C9D2CA72C0130A50025086E
:10094000C4070A304406031DA62CA72C662C4408B5
:100950004207A50043080318430AA6003B082507E1
:10096000A7003C0803183C0A2607A8002708B50280
:100970002808031CB603B602420843040319C12C1D
:10098000C22CC82CFF30B5070318B60AFF30B607D3
:1009900003303305A50000303405A60025082604E1
:1009A0000319D32CD42CE92CFF30B5070318B60A51
:1009B000FF30B607E92C203083160313A500410849
:1009C00084002508831780000130A5002508C10791
:1009D000D42C3608803AFF0080307F02031DF22CB1
:1009E000013035020318F52CF62CDB2C033083166E
:1009F00003133305A50000303405A600250826049E
:100A00000319032D042D762D2D30A50041088400F7
:100A10002508831780000130A5002508C107762D21
:100A20004408A50001300310A50DFF3E031D132D42
:100A30000310250D693E84000A168A1500200A124B
:100A40008A11F0000A168A1500200A128A11F10094
:100A50000A168A1500200A128A11F2000A168A154F
:100A600000200A128A11F3003208F7003108F6005C
:100A70003008F5002F08F4000A168A15E0250A123E
:100A80008A11730883160313BA007208B90071083B
:100A9000B8007008B7000030F3000030F2000030FA
:100AA000F1000A30F0003A08F7003908F60038087B
:100AB000F5003708F4000A168A15DD240A128A1197
:100AC000730883160313BA007208B9007108B800DE
:100AD0007008B7003708303EA5004108840025089B
:100AE000831780000130A5002508C1070130C4022A
:100AF000440A031D7C2D7D2D102D912D3030831641
:100B00000313A500410884002508831780000130E5
:100B1000A5002508C107FF30BB070318BC0AFF303A
:100B2000BC073C08803AFF0080307F02031D9A2DED
:100B300001303B0203189D2D9E2D7E2D831603133D
:100B40004308803AFF0080307F02031DA92D093041
:100B50004202031CAC2DAD2DB42D083083160313B7
:100B6000A5002508C400BA2D831603134208A5006A
:100B70002508C4004408A500A6012508C2022608CD
:100B8000031CC303C30244080319C72DC82DD32D6A
:100B90002E30A5004108840025088317800001300D
:100BA000A5002508C10744080A128A1540210A1227
:100BB0008A1183120313410883160313AD008312B5
:100BC0000313400883160313AC00831203133F087A
:100BD00083160313AB00831203133E08831603131B
:100BE000AA002D0883120313AB00831603132C08ED
:100BF00083120313AA00831603132B088312031313
:100C0000A900831603132A0883120313A80083166E
:100C10000313400883120313A700831603133F082E
:100C200083120313A600831603133E0883120313D3
:100C3000A500831603133D0883120313A4000A12B0
:100C40008A159F240A128A11831203132708C100F0
:100C50002608C0002508BF002408BE000A128A1515
:100C600006200A128A118312031341088316031304
:100C7000B20083120313400883160313B1008312DA
:100C800003133F0883160313B000831203133E08B7
:100C900083160313AF00ED2E4408A50001300310A6
:100CA000A50DFF3E031D4F2E0310250D693E840048
:100CB0000A168A1500200A128A11F0000A168A15EF
:100CC00000200A128A11F1000A168A1500200A1261
:100CD0008A11F2000A168A1500200A128A11F300FE
:100CE0003208F7003108F6003008F5002F08F4004C
:100CF0000A168A15E0250A128A117308831603134F
:100D0000BA007208B9007108B8007008B700003066
:100D1000F3000030F2000030F1000A30F0003A0831
:100D2000F7003908F6003808F5003708F4000A160D
:100D30008A15DD240A128A11730883160313BA0078
:100D40007208B9007108B8007008B7003708303E63
:100D5000A500410884002508831780000130A50004
:100D60002508C1074408A50001300310A50DFF3E6A
:100D7000031DB52E0310250D693E84000A168A1541
:100D800000200A128A11F0000A168A1500200A12A1
:100D90008A11F1000A168A1500200A128A11F2003F
:100DA0000A168A1500200A128A11F3003208F70089
:100DB0003108F6003008F5002F08F4000A168A15ED
:100DC000DD240A128A11730883160313B200720815
:100DD000B1007108B0007008AF000130C402440ACD
:100DE000031DF32EF42E4C2E062F3030A5004108A3
:100DF00084002508831780000130A5002508C1075D
:100E0000FF30C2070318C30AFF30C3074208430478
:100E1000031D0B2F0C2FF52ED02F42084304031D6A
:100E2000122F132F212F3208310430042F04031DF9
:100E30001A2F1B2F212F0130C2070318C30A0030BD
:100E4000C3074308803A803C031D282F4208440210
:100E500003182B2F2C2F332F831603134208A500C2
:100E60002508C4004B2F831603134308803AA500BE
:100E700080302502031D3E2F440842020318412FF3
:100E8000422F4B2F831603134408A500A601250803
:100E9000C2002608C300831603133508360403195D
:100EA000522F532F652F03303305A5000030340532
:100EB000A6002508260403195E2F5F2F652FFF303B
:100EC000B5070318B60AFF30B607341F682F692F1D
:100ED000842F4308803AA5003608803A2502031D76
:100EE000732F350842020318762F772F802F831631
:100EF00003134208B5024308031CB603B602842F4D
:100F000083160313B501B6013608803A803C031DF1
:100F10008B2F3508440203188E2F8F2F9B2F83169B
:100F200003134408A500A6012508B5022608031CE2
:100F3000B603B6029F2F83160313B501B601350819
:100F400036040319A42FA52FBC2F2030A50041087B
:100F500084002508831780000130A5002508C107FB
:100F6000FF30B5070318B60AFF30B6073508360458
:100F7000031DBB2FBC2FA52F03303305A500003068
:100F80003405A600250826040319C72FC82FD02F23
:100F90002D30A50041088400250883178000812892
:100FA0000130A007FF30200784000A168A150020B0
:100FB0000A128A11A5002508C4004408031DE12F68
:100FC000E22F7428410884008317800108008316EB
:100FD0000313E2018313CD308400E2300A168A1530
:100FE000BF220A128A11831790308400A0300A169B
:100FF0008A15BF220A128A1183010A168A15462E03
:10100C00031083120313400D410DC2004208C800A7
:10101C004808031D122813281C280030C10000307A
:10102C00C0000030BF000030BE0081283E08C20066
:10103C003F08C3004008C4004108C5001F3003101E
:10104C00C50CC40CC30CC20CFF3E031D2528420862
:10105C00C6004608C700C017FF30BE05FF30BF05ED
:10106C00FF30C0050030C1059630C802C81F3F28AC
:10107C0040285A284808803A973E031846284728A3
:10108C004828132801300310C10CC00CBF0CBE0C37
:10109C00FF3E031D49280130C2004208C807031D4A
:1010AC00582859284828712820304802031C5F28EA
:1010BC0060286C2813280130C2000310BE0DBF0D30
:1010CC00C00DC10DC20B63280130C8024808031DB6
:1010DC0070287128612847080319752876288128FB
:1010EC00BE09BF09C009C109BE0A0319BF0A031909
:1010FC00C00A0319C10A08000310720D730DF80021
:10110C00780883120313A5002508031D8E288F2849
:10111C0098280030F3000030F2000030F10000306D
:10112C00F0003F290310760D770DF8007808A40025
:10113C002408031DA228A328A4288F28F217FF3007
:10114C00F005FF30F105FF30F2050030F305F6171E
:10115C00FF30F405FF30F505FF30F6050030F705DC
:10116C000030A3000030A2000030A1000030A0002D
:10117C007F30A502A0302407F8007808A5022030A3
:10118C00F8007808A4000130F8000310A00DA10DA0
:10119C00A20DA30DF80BCB2877087302031DE028D2
:1011AC0076087202031DE02875087102031DE02801
:1011BC0074087002031CE328E428F3287408F00276
:1011CC007508031C750FF1027608031C760FF202EA
:1011DC007708031C770FF30220140130F80003107A
:1011EC00F00DF10DF20DF30DF80BF5280130A40202
:1011FC00031D01290229C928A51F05290629202913
:10120C002508803A9F3E03180C290D290E298F289A
:10121C0001300310A30CA20CA10CA00CFF3E031D6B
:10122C000F290130F8007808A507031D1E291F2976
:10123C000E29372920302502031C2529262932297D
:10124C008F280130F8000310A00DA10DA20DA30DE5
:10125C00F80B29290130A5022508031D3629372949
:10126C0027292308F3002208F2002108F1002008A6
:10127C00F000080083120313D000D01F4629472921
:10128C00F42AD009D00A5008803A123E031C4F2988
:10129C005029382A0A30F7000030F8005008F200C4
:1012AC00F301F21BF3036430F0000030F1000A1676
:1012BC008A1587250A128A157108FA007008F90038
:1012CC000A128A1103200A128A1577088312031353
:1012DC00C20001300310C20DFF3E031D7029031024
:1012EC00420D593E84000A168A1500200A128A15EE
:1012FC00C3000A168A1500200A128A15C4000A16A1
:10130C008A1500200A128A15C5000A168A150020B3
:10131C000A128A15C6004608A7004508A60044080C
:10132C00A5004308A4006430F7000030F800500812
:10133C00F900FA01F91BFA030A128A1103200A12A6
:10134C008A15770883120313C70001300310C70DE9
:10135C00FF3E031DAC290310470D7D3E84000A1689
:10136C008A1500200A128A15C8000A168A15002050
:10137C000A128A15C9000A168A1500200A128A1543
:10138C00CA000A168A1500200A128A15CB004B08CF
:10139C00AB004A08AA004908A9004808A8000A128C
:1013AC008A159F240A128A15831203132708CF006B
:1013BC002608CE002508CD002408CC000A30F00009
:1013CC000030F1005008F200F301F21BF3030A168F
:1013DC008A1587250A128A15700883120313C20016
:1013EC0001300310C20DFF3E031DF7290310420DFF
:1013FC00353E84000A168A1500200A128A15C3008D
:10140C000A168A1500200A128A15C4000A168A15B3
:10141C0000200A128A15C5000A168A1500200A1225
:10142C008A15C6004608A7004508A6004408A50072
:10143C004308A4004F08AB004E08AA004D08A900B1
:10144C004C08A8000A128A159F240A128A158312C6
:10145C0003132708C1002608C0002508BF00240874
:10146C00BE009E2C5008803A753E031C3E2A3F2A33
:10147C00C72A0A30F0000030F1005008F200F301E6
:10148C00F21BF3030A168A1587250A128A157008AF
:10149C0083120313C20001300310C20DFF3E031D63
:1014AC00522A0310420D353E84000A168A1500207C
:1014BC000A128A15C3000A168A1500200A128A1508
:1014CC00C4000A168A1500200A128A15C5000A16CD
:1014DC008A1500200A128A15C6004608A70045087E
:1014EC00A6004408A5004308A4000A30F700003009
:1014FC00F8005008F900FA01F91BFA030A128A11D4
:10150C0003200A128A15770883120313C7000130CF
:10151C000310C70DFF3E031D8E2A0310470D593EC5
:10152C0084000A168A1500200A128A15C8000A16A9
:10153C008A1500200A128A15C9000A168A1500207D
:10154C000A128A15CA000A168A1500200A128A1570
:10155C00CB004B08AB004A08AA004908A900480870
:10156C00A8000A128A159F240A128A1583120313E3
:10157C002708C1002608C0002508BF002408BE00AB
:10158C009E2C5008C20001300310C20DFF3E031DFB
:10159C00CA2A0310420D353E84000A168A15002013
:1015AC000A128A15C3000A168A1500200A128A1517
:1015BC00C4000A168A1500200A128A15C5000A16DC
:1015CC008A1500200A128A15C6004608C100450873
:1015DC00C0004408BF004308BE009E2C5008803A4F
:1015EC00123E031CFA2AFB2AE32B0A30F7000030C8
:1015FC00F8005008F200F301F21BF3036430F00022
:10160C000030F1000A168A1587250A128A1571080E
:10161C00FA007008F9000A128A1103200A128A15BE
:10162C00770883120313C20001300310C20DFF3E72
:10163C00031D1B2B0310420D253E84000A168A1530
:10164C0000200A128A15C3000A168A1500200A12F5
:10165C008A15C4000A168A1500200A128A15C500BC
:10166C000A168A1500200A128A15C6004608A70019
:10167C004508A6004408A5004308A4006430F70000
:10168C000030F8005008F900FA01F91BFA030A12AD
:10169C008A1103200A128A15770883120313C700D4
:1016AC0001300310C70DFF3E031D572B0310470DD0
:1016BC00493E84000A168A1500200A128A15C800B1
:1016CC000A168A1500200A128A15C9000A168A15EC
:1016DC0000200A128A15CA000A168A1500200A125E
:1016EC008A15CB004B08AB004A08AA004908A90090
:1016FC004808A8000A128A159F240A128A15831218
:10170C0003132708CF002608CE002508CD00240897
:10171C00CC000A30F0000030F1005008F200F30168
:10172C00F21BF3030A168A1587250A128A1570080C
:10173C0083120313C20001300310C20DFF3E031DC0
:10174C00A22B0310420D013E84000A168A150020BC
:10175C000A128A15C3000A168A1500200A128A1565
:10176C00C4000A168A1500200A128A15C5000A162A
:10177C008A1500200A128A15C6004608A7004508DB
:10178C00A6004408A5004308A4004F08AB004E086F
:10179C00AA004D08A9004C08A8000A128A159F241B
:1017AC000A128A15831203132708C1002608C000E9
:1017BC002508BF002408BE009E2C5008803A753EB8
:1017CC00031CE92BEA2B722C0A30F0000030F100DC
:1017DC005008F200F301F21BF3030A168A15872551
:1017EC000A128A15700883120313C2000130031009
:1017FC00C20DFF3E031DFD2B0310420D013E840064
:10180C000A168A1500200A128A15C3000A168A15B0
:10181C0000200A128A15C4000A168A1500200A1222
:10182C008A15C5000A168A1500200A128A15C600E8
:10183C004608A7004508A6004408A5004308A400D4
:10184C000A30F7000030F8005008F900FA01F91BD3
:10185C00FA030A128A1103200A128A1577088312D6
:10186C000313C70001300310C70DFF3E031D392CB5
:10187C000310470D253E84000A168A1500200A1213
:10188C008A15C8000A168A1500200A128A15C90082
:10189C000A168A1500200A128A15CA000A168A1519
:1018AC0000200A128A15CB004B08AB004A08AA008C
:1018BC004908A9004808A8000A128A159F240A1290
:1018CC008A15831203132708C1002608C0002508B7
:1018DC00BF002408BE009E2C5008C200013003102B
:1018EC00C20DFF3E031D752C0310420D013E8400FA
:1018FC000A168A1500200A128A15C3000A168A15C0
:10190C0000200A128A15C4000A168A1500200A1231
:10191C008A15C5000A168A1500200A128A15C600F7
:10192C004608C1004508C0004408BF004308BE007B
:10193C0008008312031327088039AC002C08B1006F
:10194C002708AC002C07AD002D08B700A61FAF2C44
:10195C00B02CB12C371437080319B52CB62CC52C68
:10196C00370A031DBA2CBB2CC32C0030A700003047
:10197C00A6000030A5000030A400A617CD2C003026
:10198C00A7000030A6000030A5000030A4002B08F2
:10199C008039AC002C08B1062B08AC002C07AD002C
:1019AC002D08B600AA1FDB2CDC2CDD2C36143608D7
:1019BC000319E12CE22CF12C360A031DE62CE72C42
:1019CC00EF2C0030AB000030AA000030A900003032
:1019DC00A800AA17F92C0030AB000030AA00003088
:1019EC00A9000030A80036080319FD2CFE2C032D8D
:1019FC003708031D022D032D0C2D0030A7000030DD
:101A0C00A6000030A5000030A400FF2F2408AC0075
:101A1C002C08F0002A080A168A1598230A128A152F
:101A2C00710883120313BD007008BC003C08AC00A5
:101A3C00AD01AE01AF012F08B5002E08B4002D0882
:101A4C00B3002C08B2003D08AC00AD01AE01AF01F3
:101A5C002F08BB002E08BA002D08B9002C08B800BE
:101A6C002508AC002C08F00029080A168A159823C2
:101A7C000A128A15710883120313BD007008BC008A
:101A8C003C08AC00AD01AE01AF012C08B2072D082B
:101A9C0003110318013E0319542DB3072E0803112B
:101AAC000318013E03195B2DB4072F08031103180B
:101ABC00013E0319622DB5073D08AC00AD01AE0126
:101ACC00AF012C08B8072D0803110318013E0319A8
:101ADC00702DB9072E0803110318013E0319772D39
:101AEC00BA072F0803110318013E03197E2DBB07FB
:101AFC002608AC002C08F00028080A168A15982332
:101B0C000A128A15710883120313BD007008BC00F9
:101B1C003C08AC00AD01AE01AF012C08B2072D089A
:101B2C0003110318013E03199C2DB3072E08031152
:101B3C000318013E0319A32DB4072F080311031832
:101B4C00013E0319AA2DB5073D08AC00AD01AE014D
:101B5C00AF012C08B8072D0803110318013E031917
:101B6C00B82DB9072E0803110318013E0319BF2D18
:101B7C00BA072F0803110318013E0319C62DBB0722
:101B8C000830AC000310B20DB30DB40DB50DAC0B99
:101B9C00C82D2508AC002C08F00028080A168A1558
:101BAC0098230A128A15710883120313BD0070085A
:101BBC00BC003C08AC003D08AD00AE01AF012C08E8
:101BCC00B2072D0803110318013E0319EE2DB307BC
:101BDC002E0803110318013E0319F52DB4072F0825
:101BEC0003110318013E0319FC2DB5072408AC00A2
:101BFC002C08F00029080A168A1598230A128A154F
:101C0C00710883120313BD007008BC003C08AC00C3
:101C1C003D08AD00AE01AF012C08B2072D08031131
:101C2C000318013E03191B2EB3072E0803110318CA
:101C3C00013E0319222EB4072F0803110318013E8D
:101C4C000319292EB5070830AC000310B20DB30DE3
:101C5C00B40DB50DAC0B2B2E2408AC002C08F000E9
:101C6C0028080A168A1598230A128A1571088312F5
:101C7C000313BD007008BC003C08AC003D08AD006F
:101C8C00AE01AF012C08B2072D0803110318013E59
:101C9C000319512EB3072E0803110318013E031923
:101CAC00582EB4072F0803110318013E03195F2E99
:101CBC00B5072508AC002C08F0002A080A168A156E
:101CCC0098230A128A15710883120313BD00700839
:101CDC00BC003C08AC003D08AD00AE01AF012C08C7
:101CEC00B8072D0803110318013E03197E2EB907FE
:101CFC002E0803110318013E0319852EBA072F086D
:101D0C0003110318013E03198C2EBB072608AC00E7
:101D1C002C08F00029080A168A1598230A128A152D
:101D2C00710883120313BD007008BC003C08AC00A2
:101D3C003D08AD00AE01AF012C08B8072D0803110A
:101D4C000318013E0319AB2EB9072E080311031813
:101D5C00013E0319B22EBA072F0803110318013ED6
:101D6C000319B92EBB072608AC002C08F0002A0872
:101D7C000A168A1598230A128A15710883120313FE
:101D8C00BD007008BC003C08AC003D08AD00AE01C5
:101D9C00AF0108300310AC0DAD0DAE0DAF0DFF3E15
:101DAC00031DD02E2C08B8072D0803110318013E73
:101DBC000319E12EB9072E0803110318013E03196C
:101DCC00E82EBA072F0803110318013E0319EF2E52
:101DDC00BB073208AC003308AD003408AE00350840
:101DEC00AF0018300310AF0CAE0CAD0CAC0CFF3EBA
:101DFC00031DF82E2C08B8072D0803110318013EFB
:101E0C000319092FB9072E0803110318013E0319F2
:101E1C00102FBA072F0803110318013E0319172FAF
:101E2C00BB070830AC000310B20DB30DB40DB50DEB
:101E3C00AC0B192F37083607AC00AD01AD0D2C08D3
:101E4C00823EBC002D080318013EFF3EBD004B2F07
:101E5C000130AC000310B80DB90DBA0DBB0DAC0BB5
:101E6C00302FB51F3A2F3B2F3C2F38140130AC00CC
:101E7C000310B20DB30DB40DB50DAC0B3E2FFF30EE
:101E8C00BC070318BD0AFF30BD07BA1F4E2F4F2FDA
:101E9C002E2FB601B51F532F542F702FFF30320544
:101EAC00AC00FF303305AD00FF303405AE007F30A1
:101EBC003505AF002F082E042D042C040319672FB1
:101ECC00682F6B2FB601B60A702F381C6E2F6F2F30
:101EDC00702F682F36080319742F752FA62F013019
:101EEC00B807003003180130B9070030031801306F
:101EFC00BA07003003180130BB073B1C862F872F15
:101F0C00A62F3808AC003908AD003A08AE003B08E3
:101F1C00AF000130B0002F0DAF0CAE0CAD0CAC0C03
:101F2C00B00B912F2F08BB002E08BA002D08B9005A
:101F3C002C08B8000130BC070318BD0A0030BD07DF
:101F4C003D08803AFF0080307F02031DAF2FFF3029
:101F5C003C02031CB22FB32FBE2F7F30831203130E
:101F6C00BB008030BA000030B9000030B800F32F4D
:101F7C00831203133D08803AFF0080307F02031D5B
:101F8C00C92F01303C020318CC2FCD2FD92F003094
:101F9C0083120313BB000030BA000030B9000030CC
:101FAC00B800B101F32F831203133C08AC002C08CA
:101FBC00B700FF30B805FF30B9057F30BA050030E7
:101FCC00BB05371CEA2FEB2FEC2FBA173708AC00E8
:101FDC0003102C0CAD002D08BB003108AC002C08F4
:101FEC00BB043B08A7003A08A6003908A50038082E
:041FFC00A400080035
:10200200F100F0013A30710203180828092811285A
:1020120030307102031C0E280F281128F001F00A3B
:10202200700C0800F80078080319182819282D28C0
:10203200F31F1C281D282D287009FA007109FB00C6
:102042007209FC007309FD00FA0A0319FB0A03195D
:10205200FC0A0319FD0A35287308FD007208FC000A
:102062007108FB007008FA007308720471047004AE
:10207200031D3C283D2846280030F3000030F200C2
:102082000030F1000030F000CC289630F4007408E3
:10209200F90058280130F4007408F90701300310E0
:1020A200FD0CFC0CFB0CFA0CFF3E031D5028FE300D
:1020B2007D05031D5D285E284B287A280130F40037
:1020C2007408F9070130FA07003003180130FB07E2
:1020D200003003180130FC07003003180130FD07FF
:1020E20001300310FD0CFC0CFB0CFA0CFF3E031D2F
:1020F2007228FF307D05031D7F2880285F288C28E9
:102102000130F9020130F4000310FA0DFB0DFC0D51
:10211200FD0DF40B8528FC1B8F2890289628023091
:1021220079020318952896288128791899289A28DF
:10213200A228FF30FA05FF30FB057F30FC05FF3097
:10214200FD050310F90C7908F400F501F601F70119
:1021520018300310F40DF50DF60DF70DFF3E031DBB
:10216200AA287408FA047508FB047608FC047708A8
:10217200FD0478080319BE28BF28C428F31FC2280B
:10218200C328C428FD177D08F3007C08F2007B08F1
:10219200F1007A08F00008007008F8007108F900F0
:1021A2007208FA000310790D7A0DFB007B08831286
:1021B2000313A5002508031DDF28E028E9280030C5
:1021C200F3000030F2000030F1000030F000892905
:1021D2007408F8007508F9007608FA000310790D02
:1021E2007A0DFB007B08A4002408031DF928FA28B5
:1021F200FB28E028F117FF30F005FF30F105003031
:10220200F205F517FF30F405FF30F5050030F6054D
:102212000030A3000030A2000030A1000030A00076
:102222007F30A50298302407F8007808A5021830FC
:10223200F8007808A4000130F8000310A00DA10DE9
:10224200A20DA30DF80B1E2976087202031D2F2979
:1022520075087102031D2F2974087002031C3229AC
:1022620033293E297408F0027508031C750FF10228
:102272007608031C760AF202201401300310F00DD6
:10228200F10DF20DFF3E031D3F290130A402031D93
:102292004B294C291C29A51F4F2950296A29250899
:1022A200803A973E0318562957295829E0280130C9
:1022B2000310A30CA20CA10CA00CFF3E031D592974
:1022C2000130F8007808A507031D682969295829F3
:1022D200812918302502031C6F2970297C29E028E6
:1022E2000130F8000310A00DA10DA20DA30DF80BF3
:1022F20073290130A5022508031D8029812971292E
:102302002308F3002208F2002108F1002008F0005F
:10231200080077088039F800780883120313A400B4
:102322007708F8007807F9007908AB00F61F9A29B8
:102332009B299C292B142B080319A029A129B12917
:102342002B0A031DA529A629AE290030F70000306B
:10235200F6000030F5000030F400F617F701B92955
:102362000030F7000030F6000030F5000030F400D5
:1023720073088039F8007808A4067308F800780713
:10238200F9007908AC00F21FC729C829C9292C1401
:102392002C080319CD29CE29DE292C0A031DD229A6
:1023A200D329DB290030F3000030F2000030F100C5
:1023B2000030F000F217F301E6290030F30000309C
:1023C200F2000030F1000030F00073087204710472
:1023D2007004031DED29EE29072A0030F7000030B2
:1023E200F6000030F5000030F4008030F6047F3053
:1023F200F7042408F8007808F7047708F300760851
:10240200F2007508F1007408F0006C2B2B08031D14
:102412000B2A0C2A152A0030F3000030F20000309B
:10242200F1000030F0006C2B2B08F800F90179085C
:10243200FB002C087802FA00031CFB037A087F3E9B
:10244200A5007B080318013E003EA6007708A30002
:102452007608A2007508A1007408A0000030F700F9
:102462000030F6000030F5000030F4000030AA0021
:102472000030A9000030A8000030A700AC01912A6A
:102482002C080319452A462A662A0130F80003104F
:10249200A00DA10DA20DA30DF80B482A0130F800E2
:1024A2000310F40DF50DF60DF70DF80B512AAA1FC6
:1024B2005B2A5C2A5D2A74140130F8000310A70D10
:1024C200A80DA90DAA0DF80B5F2A73082302031D9C
:1024D200742A72082202031D742A71082102031D44
:1024E200742A70082002031C772A782A8D2A2A1758
:1024F2007008A0027108031C710F802A812AA102B0
:102502007208031C720F862A872AA2027308031C10
:10251200730F8C2A8D2AA3020130F8007808AC07C9
:102522001A302C02031C962A972A412A23082204D5
:102532002104200403199E2A9F2ABE2A2714BE2A98
:102542000130F8000310F40DF50DF60DF70DF80B40
:10255200A32AAA1FAD2AAE2AAF2A74140130F800AA
:102562000310A70DA80DA90DAA0DF80BB12AFF3073
:10257200A5070318A60AFF30A607F61FC12AC22A1A
:10258200A12AAC01AA1FC62AC72AE32AFF302705BF
:10259200F800FF302805F900FF302905FA007F30E6
:1025A2002A05FB007B087A04790478040319DA2AE5
:1025B200DB2ADE2AAC01AC0AE32A741CE12AE22AF5
:1025C200E32ADB2A2C080319E72AE82A192B01300F
:1025D200F407003003180130F5070030031801300A
:1025E200F607003003180130F707771CF92AFA2A98
:1025F200192B7408F8007508F9007608FA007708B4
:10260200FB000130FC007B0DFB0CFA0CF90CF80C02
:10261200FC0B042B7B08F7007A08F6007908F5001A
:102622007808F4000130A5070318A60A0030A607AF
:102632002608803AFF0080307F02031D222BFF30E4
:102642002502031C252B262B342BFF308312031368
:10265200A5000030A6000030F7000030F600003080
:10266200F5000030F400831203132608803AFF00BD
:1026720080307F02031D3F2B013025020318422BBD
:10268200432B502B83120313A501A6010030F70040
:102692000030F6000030F5000030F400A40183128F
:1026A20003132508F8007808AB002B1C592B5A2B72
:1026B2005C2BF617602B7F30F8007808F6052B08A4
:1026C200F8000310780CF9007908F7002408F800E4
:1026D2007808F704FE29080083120313D1006E3034
:1026E2005102031C752B762B832C3F30A700003040
:1026F200A6000030A5000030A4006430F6000030CF
:10270200F7005108C200C3014208F8004308F9006B
:102712000A168A15F9230A168A11760883120313F8
:10272200C40001300310C40DFF3E031D932B0310A0
:10273200440D7D3E84000A168A1500200A168A116D
:10274200C5000A168A1500200A168A11C6000A1642
:102752008A1500200A168A11C7000A168A15002057
:102762000A168A11C8004808AB004708AA004608A2
:10277200A9004508A8000A128A159F240A168A1180
:10278200831203132708D0002608CF002508CE00A5
:102792002408CD000A30F6000030F7005108C200CC
:1027A200C3014208F2004308F3006430F000003035
:1027B200F1000A168A15BF230A168A117108F90058
:1027C2007008F8000A168A15F9230A168A11760883
:1027D20083120313C40001300310C40DFF3E031D16
:1027E200ED2B0310440D593E84000A168A15002071
:1027F2000A168A11C5000A168A1500200A168A11BD
:10280200C6000A168A1500200A168A11C7000A167F
:102812008A1500200A168A11C8004808A70047082E
:10282200A6004608A5004508A4005008AB004F08C2
:10283200AA004E08A9004D08A8000A128A159F2472
:102842000A168A11831203132708CC002608CB002C
:102852002508CA002408C9000A30F0000030F1003F
:102862005108C200C3014208F2004308F3000A16ED
:102872008A15BF230A168A11700883120313C40033
:1028820001300310C40DFF3E031D422C0310440D02
:10289200353E84000A168A1500200A168A11C500E0
:1028A2000A168A1500200A168A11C6000A168A1507
:1028B20000200A168A11C7000A168A1500200A1675
:1028C2008A11C8004808A7004708A6004608A500C4
:1028D2004508A4004C08AB004B08AA004A08A9000E
:1028E2004908A8000A128A159F240A168A1183121F
:1028F20003132708C1002608C0002508BF002408CA
:10290200BE00772D0B305102031C882C892C342DEC
:102912003F30A7000030A6000030A5000030A40020
:102922000A30F6000030F7005108C200C301420825
:10293200F8004308F9000A168A15F9230A168A11C3
:10294200760883120313C40001300310C40DFF3E46
:10295200031DA62C0310440D593E84000A168A1545
:1029620000200A168A11C5000A168A1500200A16C6
:102972008A11C6000A168A1500200A168A11C70093
:102982000A168A1500200A168A11C8004808AB00E8
:102992004708AA004608A9004508A8000A128A1595
:1029A2009F240A168A11831203132708D0002608CF
:1029B200CF002508CE002408CD000A30F0000030F8
:1029C200F1005108C200C3014208F2004308F300BB
:1029D2000A168A15BF230A168A1170088312031376
:1029E200C40001300310C40DFF3E031DF32C03107D
:1029F200440D353E84000A168A1500200A168A11F3
:102A0200C5000A168A1500200A168A11C6000A167F
:102A12008A1500200A168A11C7000A168A15002094
:102A22000A168A11C8004808A7004708A6004608E7
:102A3200A5004508A4005008AB004F08AA004E08A4
:102A4200A9004D08A8000A128A159F240A168A11A5
:102A5200831203132708C1002608C0002508BF00FF
:102A62002408BE00772D3F30A7000030A6000030BA
:102A7200A5000030A4005108C20001300310C20DAD
:102A8200FF3E031D3F2D0310420D353E84000A1602
:102A92008A1500200A168A11C3000A168A15002018
:102AA2000A168A11C4000A168A1500200A168A110B
:102AB200C5000A168A1500200A168A11C6004608A1
:102AC200AB004508AA004408A9004308A8000A125E
:102AD2008A159F240A168A11831203132708C1003C
:102AE2002608C0002508BF002408BE000800831283
:102AF200031355088039DA005A08E2005508DA0053
:102B02005A07DB005B08E400D41F882D892D8A2D2B
:102B12006414640803198E2D8F2D9F2D640A031DE2
:102B2200932D942D9C2D0030D5000030D400003020
:102B3200D3000030D200D417D501A72D0030D50024
:102B42000030D4000030D3000030D2005908803960
:102B5200DA005A08E300630862060319B12DB22DA8
:102B6200B32D62175908DA005A07DB005B08E3004D
:102B7200D81FBC2DBD2DBE2D631463080319C22DB1
:102B8200C32DD32D630A031DC72DC82DD02D0030B0
:102B9200D9000030D8000030D7000030D600D81756
:102BA200D901DB2D0030D9000030D8000030D70029
:102BB2000030D600640863020318E02DE12D252EB3
:102BC200621FE42DE52DE92D8030DA005A08E20675
:102BD2006408DA005A08E5006308DA005A08E400DB
:102BE2006508DA005A08E3005208DA005A08E500DC
:102BF2005608DA005A08D2006508DA005A08D600E8
:102C02005308DA005A08E5005708DA005A08D300D8
:102C12006508DA005A08D7005408DA005A08E500B5
:102C22005808DA005A08D4006508DA005A08D800B1
:102C32005508DA005A08E5005908DA005A08D500A2
:102C42006508DA005A08D900E5016308DA00DB01F9
:102C52005B08DD0064085A02DC00031CDD035D082A
:102C6200803AFF0080307F02031D392E1A305C0249
:102C7200031C3C2E3D2E7A2E831203135508540456
:102C820053045204031D462E482E0130492E0030B3
:102C9200DA005A08E5000030D5000030D4000030D8
:102CA200D3000030D2006308DA005A08E400822E12
:102CB200651C5C2E5D2E662E6508DA0003105A0C28
:102CC2000138DB005B08E500682E0310E50C521C9E
:102CD2006B2E6C2E6D2EE5170130DA00550DD50CDA
:102CE200D40CD30CD20CDA0B6F2E0130DA005A0856
:102CF200E4078312031363086402031C812E822EED
:102D0200592E621B852E862ED12E6408031D8A2E13
:102D12008B2E942E0030D5000030D4000030D3002A
:102D22000030D200FF2F5608D207570803110318AC
:102D3200013E03199D2ED307580803110318013EC3
:102D42000319A42ED407590803110318013E0319CD
:102D5200AB2ED507551CAE2EAF2E852F651CB22E7D
:102D6200B32EBC2E6508DA0003105A0C0138DB00C2
:102D72005B08E500BE2E0310E50C521CC12EC22ECC
:102D8200C32EE5170130DA00550DD50CD40CD30C47
:102D9200D20CDA0BC52E0130DA005A08E407852F6F
:102DA2005508803AFF005908803A7F02031DE32E3E
:102DB20058085402031DE32E57085302031DE32E45
:102DC200560852020318E62EE72E3F2FFF30DA0094
:102DD200FF30DB00FF30DC00FF30DD005608DE0094
:102DE2005708DF005808E0005908E1005208DE02E7
:102DF2005308031C530FFE2EFF2EDF025408031C40
:102E0200540F042F052FE0025508031C550F0A2FFB
:102E12000B2FE1025E08DA075F0803185F0F122F1B
:102E2200132FDB0760080318600F182F192FDC0718
:102E320061080318610ADD075D08D5005C08D4004B
:102E42005B08D3005A08D2008030DA005A08E20642
:102E5200E509E50A6508031D2F2F302F4D2F01309C
:102E6200D207003003180130D307003003180130B5
:102E7200D407003003180130D5074D2F5608D2026F
:102E82005708031C570FD3025808031C580FD402CB
:102E92005908031C590FD50255085404530452040F
:102EA200031D542F552F812F6508031D592F5A2FAB
:102EB200812F0030D5000030D4000030D300003024
:102EC200D200FF2F0130DA000310D20DD30DD40D42
:102ED200D50DDA0B652FE51F6F2F702F712F52144E
:102EE200651C742F752F782F0314E50D7A2F0310AC
:102EF200E50D640803197E2F7F2F812F0130E40234
:102F0200D41F842F852F632FE301E51F892F8A2F7A
:102F1200982F65087F3903198F2F902F932FE30184
:102F2200E30A982F521C962F972F982F902F630801
:102F320003199C2F9D2FD12F0130D2070030031887
:102F42000130D307003003180130D40700300318D2
:102F52000130D507551CAE2FAF2FD12F5208DA0002
:102F62005308DB005408DC005508DD000130DE00A8
:102F72005D0DDD0CDC0CDB0CDA0CDE0BB92F5D0811
:102F8200D5005C08D4005B08D3005A08D200640A5A
:102F92000319CC2FCD2FD12F0130DA005A08E407C4
:102FA200640A0319D52FD62FDB2F6408031DDA2FED
:102FB200DB2FE92F0030D5000030D4000030D300E1
:102FC2000030D2006408031DE72FE82FE92FE20149
:102FD200641CEC2FED2FEF2FD417F32F7F30DA0084
:102FE2005A08D4056408DA0003105A0CDB005B08A7
:102FF200D500E21FFD2FFE2FFF2FD5170800183036
:103002008A000408840A82070034003400348034C1
:103012003F34003400342034413400340034C834A6
:103022004234003400347A344434003440341C34A2
:10303200463400345034C3344734003424347434B6
:1030420049348034963418344B342034BC34BE3482
:103052004C3428346B346E344E34F9340234153423
:103062005034EC347834AD346034CA34F2344934F8
:1030720071340034003480343F34CD34CC34CC3419
:103082003D340A34D73423343C346F34123483341D
:103092003A341734B734D1343834AC34C5342734E5
:1030A2003734BD343734863435349534BF34D6346E
:1030B20033347734CC342B3432345F347034893443
:1030C2003034FF34E634DB342E340834E5343C3417
:1030D2001E3460344234A2340D34013400340034DE
:1030E20000340A34003400340034643400340034D0
:1030F2000034E8340334003400341034273400340C
:103102000034A034863401340034403442340F3465
:10311200003480349634983400340034E134F53489
:1031220005340034CA349A343B344E34683469343A
:1031320065347434203464346F343A3420342534A2
:0A31420033342E3432346634003486
:10357E0064008001840A0406031900340406C02A7C
:10358E0073087204710470040319CE2ACF2AD12A4B
:10359E008030F3060800F8008316031362148312BA
:1035AE000313081478080A168A158B240A168A152E
:1035BE000800F400831203130810881074088800A2
:1035CE0008152C30F0000130F1000A168A15F5228C
:1035DE000A168A158312031308110800F201F3016B
:1035EE00F201F301002B0130F2070318F30A003049
:1035FE00F30771087302031D062B70087202031C79
:10360E00092B0A2BFA2A0800FA00FB01FC01202BD9
:10361E007B087A07F9007908840000080A168A15D3
:10362E00D2220A168A150130FB070318FC0A003055
:10363E00FC077B087A07F9007908840083170008D5
:10364E00031D2A2B2B2B0F2B0800F30083120313C1
:10365E001F147308F100F10EF10DF10D1F08710624
:10366E003F3971069F007008F1000310710CF200D3
:10367E00F20EF20D831603131F087206DF3972065F
:10368E009F00700C031C1F1203181F169F170800B3
:10369E00803083120313E9066D08D5006C08D40040
:1036AE006B08D3006A08D2006908D9006808D800F0
:1036BE006708D7006608D6000A168A1178250A16FA
:1036CE008A15831203135508E9005408E8005308BD
:1036DE00E7005208E6000800F401F501701C782B93
:1036EE00792B7F2B7208F4070318F50A7308F50778
:1036FE0001300310F20DF30DFF3E031D802B013040
:10370E000310F10CF00CFF3E031D872B70087104A3
:10371E00031D922B932B752B7508F1007408F00086
:10372E000800F800F401F5017008F200F3017208C8
:10373E00F6007308F700781CA52BA62BAC2B760889
:10374E00F4070318F50A7708F50701300310F60D94
:10375E00F70DFF3E031DAD2B0310F80C7808031D6B
:10376E00B92BBA2BA22B7508F1007408F0000800D3
:10377E00700871040319C42BC52BF42BF501F50A3F
:10378E00D32B01300310F00DF10DFF3E031DC92B9D
:10379E000130F4007408F507F11FD62BD72BC82B78
:1037AE0071087302031DDD2B70087202031CE02BDF
:1037BE00E12BE72B7008F2027108031CF303F302EE
:1037CE0001300310F10CF00CFF3E031DE82B01300D
:1037DE00F502031DF32BF42BD72B7308F10072089F
:1037EE00F0000800FB01FC01760877040319002C99
:1037FE00012C382CFD01FD0A0F2C01300310F60DA3
:10380E00F70DFF3E031D052C0130FA007A08FD0767
:10381E00F71F122C132C042C01300310FB0DFC0D82
:10382E00FF3E031D142C77087902031D202C760809
:10383E007802031C232C242C2B2C7608F8027708F4
:10384E00031CF903F9027B1401300310F70CF60C7C
:10385E00FF3E031D2C2C0130FD02031D372C382C8E
:10386E00132C7C08F7007B08F6000800003070056A
:10387E00F80000307105F90080307205FA007F30D3
:10388E007305FB007B087A0479047804031D502C21
:10389E00512C592C0030F3000030F2000030F100B2
:1038AE000030F00000307405F80000307505F900A6
:1038BE0080307605FA007F307705FB007B087A04AE
:1038CE0079047804031D6C2C6D2C752C0030F700D8
:1038DE000030F6000030F5000030F4007708730673
:1038EE00031D832C76087206031D832C7508710642
:1038FE00031D832C740870060319862C872C892CC3
:10390E0003108A2C03140800F60083160313621C9E
:10391E00912C922C942C6210972C83120313081066
:10392E00831288107608F4007408F700F030F40063
:10393E007408F7050F30F400740888057708F40052
:10394E007408880408152C30F0000130F1000A16B6
:10395E008A15F5220A168A158312031308117608A2
:10396E00F40003300310F40DFF3E031DB92C0310B9
:10397E00740DF5007508F700F030F4007408F705C3
:10398E000F30F400740888057708F4007408880472
:10399E0008152C30F0000130F1000A168A15F522B8
:1039AE000A168A158312031308110800730872048D
:1039BE00710470040319E42CE52C282DF901F90A81
:1039CE00F52C0130F8000310F00DF10DF20DF30D92
:1039DE00F80BEA2C0130F8007808F907F31FF82CE1
:1039EE00F92CE82C73087702031D072D7208760256
:1039FE00031D072D71087502031D072D7008740233
:103A0E00031C0A2D0B2D192D7008F4027108031CCE
:103A1E00710FF5027208031C720FF6027308031C75
:103A2E00730FF70201300310F30CF20CF10CF00CD3
:103A3E00FF3E031D1A2D0130F902031D272D282DDF
:103A4E00F92C7708F3007608F2007508F100740877
:103A5E00F000080083120313A6000E30260203188E
:103A6E00392D3A2D3B2D442D0030A3000030A200FD
:103A7E000030A1000030A000862D2608A400A40D61
:103A8E00A40D1F082406C33924069F000630831296
:103A9E000313A5002F30A400A40B532DA50B532DFB
:103AAE00582D831203139F149F185E2D5F2D5B2DCF
:103ABE001E08A400A5012408A500A4018316031363
:103ACE001E08831203132407F00000300318013080
:103ADE002507F100F201F11BF2037208F300013029
:103AEE000A168A1113200A168A15730883120313F5
:103AFE00A3007208A2007108A1007008A0000800BF
:103B0E00F601F31F8B2D8C2D932DF209F309F20A7A
:103B1E000319F30AF601F60AF11F962D972D9C2D27
:103B2E00F009F109F00A0319F10A7008710403197A
:103B3E00A12DA22DD12DF501F50AB02D01300310C6
:103B4E00F00DF10DFF3E031DA62D0130F40074089B
:103B5E00F507F11FB32DB42DA52D71087302031DAA
:103B6E00BA2D70087202031CBD2DBE2DC42D700817
:103B7E00F2027108031CF303F30201300310F10C7F
:103B8E00F00CFF3E031DC52D0130F502031DD02D97
:103B9E00D12DB42D76080319D52DD62DDB2DF20996
:103BAE00F309F20A0319F30A7308F1007208F00020
:103BBE0008000030FC000030FB000030FA0000303E
:103BCE00F90073087204710470040319EF2DF02DBF
:103BDE003D2EFD01FD0A002E0130F8000310F00D00
:103BEE00F10DF20DF30DF80BF52D0130F8007808FC
:103BFE00FD07F31F032E042EF32D0130F8000310E2
:103C0E00F90DFA0DFB0DFC0DF80B062E730877025D
:103C1E00031D1B2E72087602031D1B2E71087502E2
:103C2E00031D1B2E70087402031C1E2E1F2E2E2E1B
:103C3E007008F4027108031C710FF5027208031C60
:103C4E00720FF6027308031C730FF702791401301A
:103C5E000310F30CF20CF10CF00CFF3E031D2F2E93
:103C6E000130FD02031D3C2E3D2E042E7C08F30078
:103C7E007B08F2007A08F1007908F000080083163C
:103C8E00031388010514033083120313EE006E082C
:103C9E00F00001300A168A152C230A168A150A1608
:103CAE008A15BE260A168A1500300A168A1531257F
:103CBE000A168A1583120313230883160313C800EA
:103CCE0083120313220883160313C70083120313F0
:103CDE00210883160313C6008312031320088316CC
:103CEE000313C5004030F3000230F200F130F10052
:103CFE00AA30F0004808F7004708F6004608F5001D
:103D0E004508F4000A168A118A210A168A157308C4
:103D1E0083160313CC007208CB007108CA0070081A
:103D2E00C900913083120313EE006E08831603133D
:103D3E00A0004C08A4004B08A3004A08A2004908A2
:103D4E00A10090300A128A116C200A168A15803052
:103D5E000A168A158B240A168A1590300A168A15A9
:103D6E000B230A168A155B2E0A128A1100282C3094
:103D7E00F0000130F1000A168A15F5220A168A158E
:103D8E0030300A168A15E0220A168A152C30F000F9
:103D9E000130F1000A168A15F5220A168A153030FE
:103DAE000A168A15E0220A168A152C30F000013008
:103DBE00F1000A168A15F5220A168A1530300A16EF
:103DCE008A15E0220A168A152C30F0000130F10017
:103DDE000A168A15F5220A168A1520300A168A1531
:103DEE00E0220A168A152C30F0000130F1000A1676
:103DFE008A15F5220A168A150C300A168A158B2496
:103E0E000A168A152C30F0000130F1000A168A15B8
:103E1E00F5220A168A1528300A168A158B240A16D8
:103E2E008A152C30F0000130F1000A168A15F522A1
:103E3E000A168A1504300A168A158B240A168A1554
:103E4E002C30F0000130F1000A168A15F5220A1600
:103E5E008A1585300A168A158B240A168A152C3077
:103E6E00F0000130F1000A168A15F5220A168A159D
:103E7E0006300A168A158B240A168A152C30F00085
:103E8E000130F1000A168A15F5220A168A1501303C
:103E9E000A168A158B240A168A152C30F00001306A
:103EAE00F1000A168A15F5220A168A150800003046
:103EBE007005F80000307105F90080307205FA00C7
:103ECE007F307305FB007B087A0479047804031DA8
:103EDE00712F722F7A2F0030F3000030F200003075
:103EEE00F1000030F00000307405F8000030750568
:103EFE00F90080307605FA007F307705FB007B08ED
:103F0E007A0479047804031D8D2F8E2F962F00309E
:103F1E00F7000030F6000030F5000030F400F31F1B
:103F2E00992F9A2FBE2F0030F8000030F900003084
:103F3E00FA008030FB007008F8027108031C710F44
:103F4E00A92FAA2FF9027208031C720FAF2FB02FE0
:103F5E00FA027308031C730FB52FB62FFB027B08F2
:103F6E00F3007A08F2007908F1007808F000F71FE4
:103F7E00C12FC22FE62F0030F8000030F9000030BC
:103F8E00FA008030FB007408F8027508031C750FE8
:103F9E00D12FD22FF9027608031C760FD72FD82FE8
:103FAE00FA027708031C770FDD2FDE2FFB027B084A
:103FBE00F7007A08F6007908F5007808F4008030EA
:103FCE00F3068030F70677087302031DF82F760884
:103FDE007202031DF82F75087102031DF82F740865
:103FEE0070020318FB2FFC2FFE2F0310FF2F03145C
:023FFE000800B9
:04400E00F720FF3F59
:00000001FF
