:020000040000FA
:060000000A128A11E42F30
:10003C008834133400340034031083120313560D28
:10004C00570DD8005808DE005E08031D2E282F28F7
:10005C0038280030D7000030D6000030D5000030F2
:10006C00D4009D285408D8005508D9005608DA0049
:10007C005708DB001F300310DB0CDA0CD90CD80C42
:10008C00FF3E031D41285808DC005C08DD00D61734
:10009C00FF30D405FF30D505FF30D6050030D7052D
:1000AC009630DE02DE1F5B285C2876285E08803ADC
:1000BC00973E03186228632864282F280130031008
:1000CC00D70CD60CD50CD40CFF3E031D6528013083
:1000DC00D8005808DE07031D7428752864288D285D
:1000EC0020305E02031C7B287C2888282F280130B6
:1000FC00D8000310D40DD50DD60DD70DD80B7F28F5
:10010C000130DE025E08031D8C288D287D285D08D9
:10011C000319912892289D28D409D509D609D70905
:10012C00D40A0319D50A0319D60A0319D70A0800E9
:10013C0083120313A101F31FA428A528B228F009E8
:10014C00F109F209F309F00A0319F10A0319F20A89
:10015C000319F30AA101A10AF71FB528B628C5286F
:10016C00F409F509F609F709F40A0319F50A031954
:10017C00F60A0319F70A0130F8007808A1060030D6
:10018C00A5000030A4000030A3000030A2007308CA
:10019C007204710470040319D428D5282229A001F3
:1001AC00A00AE5280130F8000310F00DF10DF20D56
:1001BC00F30DF80BDA280130F8007808A007F31FCC
:1001CC00E828E928D8280130F8000310A20DA30D67
:1001DC00A40DA50DF80BEB2873087702031D00295D
:1001EC0072087602031D002971087502031D00298F
:1001FC0070087402031C0329042913297008F402E3
:10020C007108031C710FF5027208031C720FF602C1
:10021C007308031C730FF702221401300310F30C44
:10022C00F20CF10CF00CFF3E031D14290130A0025E
:10023C00031D21292229E928210803192629272908
:10024C003229A209A309A409A509A20A0319A30A20
:10025C000319A40A0319A50A2508F3002408F200BF
:10026C002308F1002208F000080003308312031366
:10027C006002FF3003195F02031845294629EB2958
:10028C005F08F0006008F100F201F30100300A127F
:10029C008A11EC210A128A11730883120313A70026
:1002AC007208A6007108A5007008A4004430A300D1
:1002BC007F30A200C030A1000030A0000A128A11C9
:1002CC00A6220A128A11831203132308C1002208E2
:1002DC00C0002108BF002008BE004030BD008030A7
:1002EC00BC000030BB000030BA000A128A11832413
:1002FC000A128A11831203133D08E7003C08E6003A
:10030C003B08E5003A08E4006708C1006608C00035
:10031C006508BF006408BE00831603131208013E73
:10032C00F000003003180130F100F201F11BF20370
:10033C007208F30001300A128A11EC210A128A1198
:10034C00730883120313BD007208BC007108BB0054
:10035C007008BA000A128A1183240A128A118312B5
:10036C0003133D08D7003C08D6003B08D5003A08DB
:10037C00D4000A128A1122200A128A118312031342
:10038C005508E0005408DF006008E2005F08E10057
:10039C000310E20CE10C0310E20CE10C6108950077
:1003AC006008E2005F08E1000310E20CE10C610858
:1003BC00E300E30EE30D17086306DF3963069700CD
:1003CC005F0C031C1712031817160800F8007808A6
:1003DC000319F129F229062AF31FF529F629062A11
:1003EC007009FA007109FB007209FC007309FD0029
:1003FC00FA0A0319FB0A0319FC0A0319FD0A0E2A4F
:10040C007308FD007208FC007108FB007008FA000C
:10041C007308720471047004031D152A162A1F2A0E
:10042C000030F3000030F2000030F1000030F0003A
:10043C00A52A9630F4007408F900312A0130F40032
:10044C007408F90701300310FD0CFC0CFB0CFA0CC2
:10045C00FF3E031D292AFE307D05031D362A372A4F
:10046C00242A532A0130F4007408F9070130FA07E2
:10047C00003003180130FB07003003180130FC0773
:10048C00003003180130FD0701300310FD0CFC0C8B
:10049C00FB0CFA0CFF3E031D4B2AFF307D05031DA0
:1004AC00582A592A382A652A0130F9020130F400F9
:1004BC000310FA0DFB0DFC0DFD0DF40B5E2AFC1B5D
:1004CC00682A692A6F2A0230790203186E2A6F2A69
:1004DC005A2A7918722A732A7B2AFF30FA05FF30C0
:1004EC00FB057F30FC05FF30FD050310F90C790886
:1004FC00F400F501F601F70118300310F40DF50DB9
:10050C00F60DF70DFF3E031D832A7408FA047508D7
:10051C00FB047608FC047708FD0478080319972A75
:10052C00982A9D2AF31F9B2A9C2A9D2AFD177D0839
:10053C00F3007C08F2007B08F1007A08F000080058
:10054C008312031327088039A8002808B100270854
:10055C00A8002807A9002908B800A61FB62AB72AA0
:10056C00B82A381438080319BC2ABD2ACD2A380AEF
:10057C00031DC12AC22ACA2A0030A7000030A600D7
:10058C000030A5000030A400A617A701D52A003022
:10059C00A7000030A6000030A5000030A4002308FE
:1005AC008039A8002808B1062308A8002807A9004C
:1005BC002908B900A21FE32AE42AE52A39143908CC
:1005CC000319E92AEA2AFA2A390A031DEE2AEF2A24
:1005DC00F72A0030A3000030A2000030A100003048
:1005EC00A000A217A301022B0030A3000030A20030
:1005FC000030A1000030A0002308220421042004B4
:10060C00031D092B0A2B232B0030A7000030A6005A
:10061C000030A5000030A4008030A6047F30A70471
:10062C003108A8002808A7042708A3002608A20060
:10063C002508A1002408A000822C3808031D272BB4
:10064C00282B312B0030A3000030A2000030A10079
:10065C000030A000822C3808A800A9012908AB00A2
:10066C0039082802AA00031CAB032A087F3EB200FB
:10067C002B080318013E003EB3002708B0002608E3
:10068C00AF002508AE002408AD000030A7000030F4
:10069C00A6000030A5000030A4000030B7000030E8
:1006AC00B6000030B5000030B400B901A72B3908F2
:1006BC000319612B622B822B0130A8000310AD0DA6
:1006CC00AE0DAF0DB00DA80B642B0130A8000310BC
:1006DC00A40DA50DA60DA70DA80B6D2BB71F772B81
:1006EC00782B792B24140130A8000310B40DB50D10
:1006FC00B60DB70DA80B7B2B23083002031D902BD6
:10070C0022082F02031D902B21082E02031D902B73
:10071C0020082D02031C932B942BA32B3717200896
:10072C00AD022108031C210FAE022208031C220F6C
:10073C00AF022308031C230FB0020130A8002808C5
:10074C00B9071A303902031CAC2BAD2B5D2B3008CA
:10075C002F042E042D040319B42BB52BD42B3414D5
:10076C00D42B0130A8000310A40DA50DA60DA70DC8
:10077C00A80BB92BB71FC32BC42BC52B24140130CA
:10078C00A8000310B40DB50DB60DB70DA80BC72BF3
:10079C00FF30B2070318B30AFF30B307A61FD72BDD
:1007AC00D82BB72BB901B71FDC2BDD2BF92BFF3066
:1007BC003405A800FF303505A900FF303605AA0026
:1007CC007F303705AB002B082A04290428040319B1
:1007DC00F02BF12BF42BB901B90AF92B241CF72BB4
:1007EC00F82BF92BF12B39080319FD2BFE2B2F2C91
:1007FC000130A407003003180130A507003003189E
:10080C000130A607003003180130A707271C0F2C56
:10081C00102C2F2C2408A8002508A9002608AA00B3
:10082C002708AB000130AC002B0DAB0CAA0CA90CAB
:10083C00A80CAC0B1A2C2B08A7002A08A600290818
:10084C00A5002808A4000130B2070318B30A003031
:10085C00B3073308803AFF0080307F02031D382C29
:10086C00FF303202031C3B2C3C2C4A2CFF308312F1
:10087C000313B2000030B3000030A7000030A60014
:10088C000030A5000030A400831203133308803A13
:10089C00FF0080307F02031D552C013032020318FB
:1008AC00582C592C662C83120313B201B30100305F
:1008BC00A7000030A6000030A5000030A400B10154
:1008CC00831203133208A8002808B800381C6F2CB8
:1008DC00702C722CA617762C7F30A8002808A60541
:1008EC003808A8000310280CA9002908A700310813
:1008FC00A8002808A7041A2B0800831203133D082C
:10090C008039C2004208C7003D08C2004207C3003C
:10091C004308CD00BC1F932C942C952C4D144D08E2
:10092C000319992C9A2CA92C4D0A031D9E2C9F2C33
:10093C00A72C0030BD000030BC000030BB000030E4
:10094C00BA00BC17B12C0030BD000030BC00003028
:10095C00BB000030BA0041088039C2004208C7060B
:10096C004108C2004207C3004308CC00C01FBF2C83
:10097C00C02CC12C4C144C080319C52CC62CD52CDE
:10098C004C0A031DCA2CCB2CD32C0030C1000030D8
:10099C00C0000030BF000030BE00C017DD2C00309E
:1009AC00C1000030C0000030BF000030BE004C0859
:1009BC000319E12CE22CE72C4D08031DE62CE72C47
:1009CC00F02C0030BD000030BC000030BB0000300B
:1009DC00BA00E32F3A08C2004208F00040080A129D
:1009EC008A1538270A128A11710883120313D3004F
:1009FC007008D2005208C200C301C401C5014508E9
:100A0C00CB004408CA004308C9004208C800530878
:100A1C00C200C301C401C5014508D1004408D0007F
:100A2C004308CF004208CE003B08C2004208F00049
:100A3C003F080A128A1538270A128A117108831284
:100A4C000313D3007008D2005208C200C301C401C2
:100A5C00C5014208C807430803110318013E0319D6
:100A6C00382DC907440803110318013E03193F2D03
:100A7C00CA07450803110318013E0319462DCB077D
:100A8C005308C200C301C401C5014208CE07430884
:100A9C0003110318013E0319542DCF074408031109
:100AAC000318013E03195B2DD007450803110318E9
:100ABC00013E0319622DD1073C08C2004208F00028
:100ACC003E080A128A1538270A128A1171088312F5
:100ADC000313D3007008D2005208C200C301C40132
:100AEC00C5014208C807430803110318013E031946
:100AFC00802DC907440803110318013E0319872DE3
:100B0C00CA07450803110318013E03198E2DCB07A4
:100B1C005308C200C301C401C5014208CE074308F3
:100B2C0003110318013E03199C2DCF074408031130
:100B3C000318013E0319A32DD00745080311031810
:100B4C00013E0319AA2DD1070830C2000310C80DAD
:100B5C00C90DCA0DCB0DC20BAC2D3B08C20042080F
:100B6C00F0003E080A128A1538270A128A117108F9
:100B7C0083120313D3007008D2005208C20053082A
:100B8C00C300C401C5014208C80743080311031878
:100B9C00013E0319D22DC907440803110318013E65
:100BAC000319D92DCA07450803110318013E03196F
:100BBC00E02DCB073A08C2004208F0003F080A12A9
:100BCC008A1538270A128A11710883120313D3006D
:100BDC007008D2005208C2005308C300C401C501FA
:100BEC004208C807430803110318013E0319FF2DDF
:100BFC00C907440803110318013E0319062ECA073E
:100C0C00450803110318013E03190D2ECB070830BC
:100C1C00C2000310C80DC90DCA0DCB0DC20B0F2E8F
:100C2C003A08C2004208F0003E080A128A1538271A
:100C3C000A128A11710883120313D3007008D200B0
:100C4C005208C2005308C300C401C5014208C807BA
:100C5C00430803110318013E0319352EC907440834
:100C6C0003110318013E03193C2ECA074508031152
:100C7C000318013E0319432ECB073B08C200420860
:100C8C00F00040080A128A1538270A128A117108D6
:100C9C0083120313D3007008D2005208C200530809
:100CAC00C300C401C5014208CE0743080311031851
:100CBC00013E0319622ECF07440803110318013EAD
:100CCC000319692ED007450803110318013E0319B7
:100CDC00702ED1073C08C2004208F0003F080A12EF
:100CEC008A1538270A128A11710883120313D3004C
:100CFC007008D2005208C2005308C300C401C501D9
:100D0C004208CE07430803110318013E03198F2E26
:100D1C00CF07440803110318013E0319962ED00780
:100D2C00450803110318013E03199D2ED1073C08F9
:100D3C00C2004208F00040080A128A1538270A122D
:100D4C008A11710883120313D3007008D200520861
:100D5C00C2005308C300C401C50108300310C20D02
:100D6C00C30DC40DC50DFF3E031DB42E4208CE07A6
:100D7C00430803110318013E0319C52ECF0744087D
:100D8C0003110318013E0319CC2ED007450803119B
:100D9C000318013E0319D32ED1074808C200490895
:100DAC00C3004A08C4004B08C50018300310C50C1A
:100DBC00C40CC30CC20CFF3E031DDC2E4208CE0734
:100DCC00430803110318013E0319ED2ECF07440805
:100DDC0003110318013E0319F42ED0074508031123
:100DEC000318013E0319FB2ED1070830C200031073
:100DFC00C80DC90DCA0DCB0DC20BFD2E4D084C07ED
:100E0C00C200C301C30D4208823ED200430803183E
:100E1C00013EFF3ED3002F2F0130C2000310CE0D38
:100E2C00CF0DD00DD10DC20B142FCB1F1E2F1F2F8A
:100E3C00202F4E140130C2000310C80DC90DCA0D6D
:100E4C00CB0DC20B222FFF30D2070318D30AFF3071
:100E5C00D307D01F322F332F122FCC01CB1F372F9C
:100E6C00382F542FFF304805C200FF304905C3000E
:100E7C00FF304A05C4007F304B05C50045084404CB
:100E8C004304420403194B2F4C2F4F2FCC01CC0A97
:100E9C00542F4E1C522F532F542F4C2F4C080319E8
:100EAC00582F592F8A2F0130CE07003003180130EC
:100EBC00CF07003003180130D00700300318013081
:100ECC00D107511C6A2F6B2F8A2F4E08C2004F0876
:100EDC00C3005008C4005108C5000130C600450DC0
:100EEC00C50CC40CC30CC20CC60B752F4508D10025
:100EFC004408D0004308CF004208CE000130D2078E
:100F0C000318D30A0030D3075308803AFF0080300F
:100F1C007F02031D932FFF305202031C962F972F35
:100F2C00A22F7F3083120313D1008030D000003009
:100F3C00CF000030CE00D72F831203135308803A12
:100F4C00FF0080307F02031DAD2F013052020318C9
:100F5C00B02FB12FBD2F003083120313D1000030FE
:100F6C00D0000030CF000030CE00C701D72F831245
:100F7C0003135208C2004208CD00FF30CE05FF30EB
:100F8C00CF057F30D0050030D1054D1CCE2FCF2F93
:100F9C00D02FD0174D08C2000310420CC3004308D9
:100FAC00D1004708C2004208D1045108BD005008C6
:100FBC00BC004F08BB004E08BA0008000A128A1188
:100FCC001E200A128A11EA000A128A111F200A1224
:100FDC008A11EB000A128A1120200A128A11EC00E5
:100FEC000A128A1121200A128A11ED0083010A12B9
:040FFC008A158C2F97
:101E2A00F300831203131F147308F100F10EF10D6E
:101E3A00F10D1F0871063F3971069F007008F10005
:101E4A000310710CF200F20EF20D831603131F0831
:101E5A007206DF3972069F00700C031C1F120318EA
:101E6A001F169F170800F800F401F5017008F20028
:101E7A00F3017208F6007308F700781C452F462F05
:101E8A004C2F7608F4070318F50A7708F50701308E
:101E9A000310F60DF70DFF3E031D4D2F0310F80C2E
:101EAA007808031D592F5A2F422F7508F10074081C
:101EBA00F0000800F4000E3074020318652F662F34
:101ECA00672F6A2FF001F1018B2F7408F200F20DCF
:101EDA00F20D831203131F087206C33972069F009C
:101EEA000630F3003030F200F20B792FF30B792F22
:101EFA000000831203139F149F18842F852F812FAC
:101F0A001E08F100831603131E08F000080083164A
:101F1A0003130514033083120313E8006808F00062
:101F2A0001300A128A1515270A128A150A128A1509
:101F3A00BF270A128A1500300A128A155F270A1269
:101F4A008A15710883120313E0007008DF000A1271
:101F5A008A113B210A128A150D3083120313E900F4
:101F6A00FB30E800E80BB72FE90BB72FA02F0A12B6
:101F7A008A110028831203136A08F9006B08FA0011
:101F8A006C08FB006D08FC0002300310F90DFA0D15
:101F9A00FB0DFC0DFF3E031DCA2F02300310F90D85
:101FAA00FA0DFB0DFC0DFF3E031DD32F7C08F30039
:101FBA007B08F2007A08F1007908F0000030F70097
:101FCA007A30F6001230F5000030F4000A128A1155
:101FDA009E200A128A157008FF3E83160313920088
:101FEA0083120313971517151214921012158316DC
:061FFA00031307110800AB
:04400E00F720FF3F59
:00000001FF
