:020000040000FA
:060000000A128A110C280F
:10000800FE00030EF1000A08F2000A128A116428A1
:100018000A128A110F28F80183010A128A1114287A
:1000280083160313061488018B170B168B10011304
:100038008316031709122E28FF3083120313880032
:100048002E280A128A1141200A128A112E28831298
:10005800031388017808F600F7017708003A0319B6
:1000680036282B287608013A03192028033A031961
:1000780025282B280A128A110C28553083120313BD
:1000880088000630F5001330F400AD30F300F30BB0
:100098004B28F40B4B28F50B4B285228AA30831217
:1000A800031388000630F5001330F400AD30F30078
:1000B800F30B5C28F40B5C28F50B5C28632808001C
:1000C8008B1C672868286D280130F0007008F80735
:1000D8008B1003307806031D722873287428F801E2
:0E00E80072088A00710E8300FE0E7E0E090063
:04400E00D720FF3F79
:00000001FF
