:020000040000FA
:100000000A128A11F22F00308A000408840A82073B
:10001000003444346534763469346F3474342134B4
:0E0020000034483465346C346C346F34003472
:100ACA0064008001840A0406031900340406662DB2
:100ADA000A128A117F250A128A1183160313111426
:100AEA0008000A128A117F250A128A118316031333
:100AFA0011150800831603131419842D852D7F2DD3
:100B0A0011081F39031D8A2D8B2D7F2D0800F00037
:100B1A000A128A117F250A128A1170088312031396
:100B2A0093008C1D992D9A2D962D8C110800F30097
:100B3A007D08F2007208F304730804380A128A1155
:100B4A00B4250A128A117308FB390A128A11B425CC
:100B5A000A128A112130F200F20BB12D0800F100BD
:100B6A000A128A116D250A128A117C080A128A1140
:100B7A008C250A128A11710808380A128A118C25E2
:100B8A000A128A110A128A1176250A128A11080093
:100B9A00F500FD017508F0390A128A119C250A121E
:100BAA008A117508F40003300310F40DFF3E031D8B
:100BBA00D92D0310740DF0390A128A119C250A12D4
:100BCA008A110800F500FD01FD0A7508F0390A12BC
:100BDA008A119C250A128A117508F4000330031041
:100BEA00F40DFF3E031DF42D0310740DF0390A12A3
:100BFA008A119C250A128A110800F700142E770818
:100C0A0084000A128A1103200A128A110A128A110E
:100C1A00E7250A128A110130F6007608F7077708E5
:100C2A0084000A128A1103200A128A11003A031D4B
:100C3A001F2E202E042E0800831603139401283039
:100C4A00831203139400831603139101831203136F
:100C5A003908F3003808F2003708F1003608F000C6
:100C6A000030F7001E30F6008430F5008030F400C2
:100C7A000A128A1155270A128A117008FF3E831632
:100C8A00031393000716071A4B2E4F2E83160313CE
:100C9A008715522E8316031387110800F900752E43
:100CAA007608BF3E0A128A11CD250A128A11882EA9
:100CBA007608933E0A128A11CD250A128A11882EC5
:100CCA007608D33E0A128A11CD250A128A11882E75
:100CDA0076087F3E0A128A11CD250A128A11882EB9
:100CEA007908F700F8017808003A03197D2E6D2E6D
:100CFA007708023A0319552E013A03195D2E073A6D
:100D0A000319652E6D2E080083160313881600300A
:100D1A0083120313B9000130B8008630B700A0303F
:100D2A00B6000A128A1121260A128A114E300A12B4
:100D3A008A11C9260A128A112730FB00F530FA00F7
:100D4A00FA0BA52EFB0BA52EF601F60A01300A12A4
:100D5A008A1153260A128A1109300A128A110226A6
:100D6A000A128A11F601F60A02300A128A11532669
:100D7A000A128A1101300A128A1102260A128A11EB
:100D8A00A92E0A128A110028F8007808F6007608B7
:100D9A00FC0000300A128A11B4250A128A114E3058
:100DAA00F700EB30F600F60BD82EF70BD82E3030C2
:100DBA000A128A11CD250A128A110D30F700FB306A
:100DCA00F600F60BE62EF70BE62EEB2E30300A1263
:100DDA008A11CD250A128A110D30F700FB30F60070
:100DEA00F60BF52EF70BF52EFA2E30300A128A1171
:100DFA00CD250A128A110D30F700FB30F600F60BEA
:100E0A00042FF70B042F092F02300A128A11CD255D
:100E1A000A128A110D30F700FB30F600F60B132F79
:100E2A00F70B132F182F28300A128A11CD250A1210
:100E3A008A118230F700DD30F600F60B222FF70B0D
:100E4A00222F272F0C300A128A11CD250A128A1155
:100E5A008230F700DD30F600F60B312FF70B312F19
:100E6A00362F01300A128A11CD250A128A118230D0
:100E7A00F700DD30F600F60B402FF70B402F452F19
:100E8A0006300A128A11CD250A128A118230F70019
:100E9A00DD30F600F60B4F2FF70B4F2F542F0800BB
:100EAA0083120313B101F31F5B2F5C2F692FF00923
:100EBA00F109F209F309F00A0319F10A0319F20A0E
:100ECA000319F30AB101B10AF71F6C2F6D2F7C2F9A
:100EDA00F409F509F609F709F40A0319F50A0319D9
:100EEA00F60A0319F70A0130F8007808B10600304B
:100EFA00B5000030B4000030B3000030B20073080F
:100F0A0072047104700403198B2F8C2FD92FB0012E
:100F1A00B00A9C2F0130F8000310F00DF10DF20D0C
:100F2A00F30DF80B912F0130F8007808B007F31F82
:100F3A009F2FA02F8F2F0130F8000310B20DB30D91
:100F4A00B40DB50DF80BA22F73087702031DB72F46
:100F5A0072087602031DB72F71087502031DB72F99
:100F6A0070087402031CBA2FBB2FCA2F7008F40230
:100F7A007108031C710FF5027208031C720FF60246
:100F8A007308031C730FF702321401300310F30CB9
:100F9A00F20CF10CF00CFF3E031DCB2F0130B00216
:100FAA00031DD82FD92FA02F31080319DD2FDE2FCB
:100FBA00E92FB209B309B409B509B20A0319B30A88
:100FCA000319B40A0319B50A3508F3003408F20004
:100FDA003308F1003208F0000800FD0183132030C5
:100FEA00840030300A128A1165250A128A11830197
:060FFA000A128A11892E83
:04400E00F720FF3F59
:00000001FF
